:020000040800F2
:10000000E04F002099010008A7180008D710000849
:10001000A5180008290200086D1C00080000000057
:1000200000000000000000000000000001010008C6
:100030002B0200080000000045010008251A0008F6
:10004000B3010008B3010008B3010008B3010008C0
:10005000B3010008B3010008B3010008B3010008B0
:10006000B3010008B3010008B3010008B3010008A0
:10007000B3010008B3010008B3010008B301000890
:10008000B3010008B3010008B3010008B301000880
:10009000B3010008B3010008B3010008B301000870
:1000A000B3010008B3010008B3010008B301000860
:1000B000B3010008B3010008B3010008B301000850
:1000C000B3010008B3010008B3010008B301000840
:1000D000B3010008611C0008B3010008B301000867
:1000E000B3010008B3010008B3010008DFF80CD029
:1000F00000F088F800480047AD1C0008E04F0020E1
:10010000224B19680868B0E8F00F80F30988BFF344
:100110006F8F4FF0000080F311884EF00D0E704786
:100120000000000006480068006880F3088862B696
:1001300061B6BFF34F8FBFF36F8F00DF00BF00BF0B
:1001400008ED00E0EFF30980BFF36F8F0F4B1A68E3
:1001500020E9F00F106008B54FF0500080F31188CF
:10016000BFF34F8FBFF36F8F02F06CF94FF00000B9
:1001700080F31188BDE8084019680868B0E8F00FFE
:1001800080F30988BFF36F8F704700BF28000020FD
:10019000EFF3058070470000064880470648004797
:1001A000FEE7FEE7FEE7FEE7FEE7FEE7FEE7FEE727
:1001B000FEE7FEE79B1A0008ED00000840EA010395
:1001C0009B0703D009E008C9121F08C0042AFAD20D
:1001D00003E011F8013B00F8013B521EF9D27047D1
:1001E000D2B201E000F8012B491EFBD27047002279
:1001F000F6E710B513460A4604461946FFF7F0FF26
:10020000204610BD064C074D06E0E06840F00103B3
:1002100094E8070098471034AC42F6D3FFF76AFF22
:100220005CFC01087CFC0108FEE770472DE9F04109
:100230000D4E00254FF4A078002405EB85008701C2
:1002400007EB44008119325C4B782946204600F0C8
:10025000C5FF641CA4B2A02CF2D36D1CADB2454501
:10026000EAD3BDE8F08100002C63000872B6FEE717
:1002700010B590F821100024022903D004218163D5
:1002800001243DE001680A6822F00E020A6001685C
:100290000A6822F001020A601A4A0168914201D1FB
:1002A000012121E0174A1432914201D110211BE0B3
:1002B000144A2832914201D1891515E0114A3C3285
:1002C000914201D189140FE00E4A5032914202D17D
:1002D0004FF4803108E00B4A6432914202D14FF46E
:1002E000801101E04FF08071064A083A5160012107
:1002F00080F82110002180F82010416B01B188475F
:10030000204610BD0800024070B5044600F004F914
:100310000546601C02D004480078044400F0FCF854
:10032000401BA042FAD370BD180000202DE9F84F01
:10033000DFF8B891002409F1040A0AF1040B2346FE
:100340000F270BF1040EC9E00125A5402A40AA425F
:100350007DD1674ED1F804C0ACEB0608B44532D06D
:1003600014DCBCF1030F3AD009DCBCF1000F2AD039
:10037000BCF1010F1CD0BCF1020F31D11DE0BCF16A
:10038000110F17D0BCF1120F2AD119E0B8F5881F50
:1003900019D006DCB8F5803F15D0B8F5801F1FD105
:1003A00011E0B8F5001F0ED0B8F5041F18D10AE00F
:1003B000CB6815E0CB681B1D12E0CB6808330FE05B
:1003C000CB680C330CE08B682BB1012B4FF008038A
:1003D00003D0456104E0042302E0056100E000234E
:1003E000FF2A01D8064601E000F104064FEA840521
:1003F00001D9A5F12005D6F8008007FA05FC28EA06
:100400000C0803FA05F548EA0508C6F800804D68AF
:10041000ED0062D5374DAE6946F00106AE61AD69BB
:1004200024F0030605F001050095334D06EB050C9D
:10043000DCF80850A607360F07FA06F825EA080583
:10044000DFF8B880404503D14FF0000817E044E0E2
:10045000DFF8AC80404502D14FF001080FE0DFF833
:10046000A480404502D14FF0020808E0DFF89880F0
:10047000404502D14FF0030801E04FF0040808FAAC
:1004800006F848EA0508CCF808804D68D9F80060FD
:10049000ED034D4601D5164300E096432E604D68AE
:1004A000DAF80060AD03554601D5164300E09643E7
:1004B0002E604D68DBF80060ED025D4601D5164305
:1004C00000E096432E604D68DEF80060AD02754690
:1004D00001D5164300E096432E60641C0D682A4641
:1004E000E5407FF431AFBDE8F88F00000004014023
:1004F00000001110001002400000014000080140FF
:10050000000C014000100140001401400AB10161DB
:1005100070470904FBE7000001488068704700004D
:1005200018000020024881680278114481607047F9
:1005300018000020074810B5016841F01001016063
:10054000032000F07BF80F2000F006F800F024F8FC
:10055000002010BD0020024070B50D4D04464FF440
:100560007A712878B1FBF0F00A490968B1FBF0F024
:1005700000F037FC48B9102C07D200222146501E4B
:1005800000F03CF800206C6070BD012070BD0000E0
:1005900018000020240000200F4808B5816941F0B0
:1005A00001018161816901F001010091C16941F09E
:1005B0008051C161C069002200F0805000900F217D
:1005C000901E00F01BF80548416821F0E06141F001
:1005D0000071416008BD00000010024000000140B1
:1005E000002809DB00F01F02012191404009800032
:1005F00000F1E020C0F8001170470000F0B40E4B8D
:100600001B680C46C3F30223C3F10705042D00D970
:100610000425191D072901D2002300E0DB1E012655
:1006200006FA05F1491E214099409E40761E16406B
:100630003143F0BC01F01BBB0CED00E0064900F0BB
:10064000070208684FF6FF03184040EA0220034AF9
:1006500010430860704700000CED00E00000FA0550
:100660002DE9F0470F46050061D0434E306800F099
:100670000700B84209D2306820F0070038433060E4
:10068000306800F00700B84251D128683B4C810720
:1006900012D5400703D5606840F4E06060602878B8
:1006A000000703D5606840F4605060606068A96826
:1006B00020F0F000084360602878C00728D0686800
:1006C000012810D02168022810D0890700292EDACD
:1006D000616821F0030101436160FFF71DFF80465F
:1006E00041F288390DE021688903EFE78901EDE7E0
:1006F000FFF712FFA0EB0801494502D90320BDE82E
:10070000F0876068696800F00C00B0EB810FEFD1F2
:10071000306800F00700B8420BD9306820F00700BD
:1007200038433060306800F00700B84201D0012043
:10073000E5E72878400705D56068E96820F4E060BF
:10074000084360602878000706D56068296920F4AE
:10075000605040EAC100606000F038F86168084A03
:10076000C1F30311515CC84006490860064800689F
:10077000FFF7F2FE0020C2E7002002400010024016
:100780002CFC0108240000201C000020044805491E
:1007900000684968044AC1F30221515CC8407047AF
:1007A00024000020001002403CFC010804480549D8
:1007B00000684968044AC1F3C221515CC8407047CF
:1007C00024000020001002403CFC010812A185B06A
:1007D0000FC98DE80F0014A0144A006804905168F6
:1007E000134801F00C03042B10D0082B0ED1C1F3D9
:1007F0008343C9031DF803000AD5516804AAC1F355
:100800004041515C0A4A5043B0FBF1F005B07047DB
:1008100008494843FAE700000203040506070809EF
:100820000A0B0C0D0E0F1010010200000010024008
:1008300000127A0000093D002DE9F84F040070D045
:100840002078C04DC00749D06868C0F381000128F6
:1008500007D06868C0F38100022809D16868C00326
:1008600006D52868800339D560680028E7D035E0D0
:100870006068B0F5803F0BD010B1B0F5A02F11D05B
:10088000286820F480302860286820F4802002E066
:10089000286840F480302860606890B1FFF73CFE23
:1008A00006460AE0286840F480202860F0E700BF90
:1008B000FFF732FE801B642873D828688003F7D5C1
:1008C0000CE0FFF729FE064605E000BFFFF724FE17
:1008D000801B6428F0D828688003F7D420789A4ECB
:1008E00080074FF001094FF0000839D5686810F013
:1008F0000C0F07D06868C0F38100022809D168682E
:10090000C00306D42868800714D52069012808D1BF
:1009100010E02069B0B1C6F80090FFF7FDFD074672
:1009200005E00AE1FFF7F8FDC01B0228C4D82868DB
:100930008007F7D52868616920F0F80040EAC10017
:1009400028600DE0C6F80080FFF7E6FD074604E0EA
:10095000FFF7E2FDC01B022823D828688007F7D4E0
:10096000207800072CD57948A169D9B1C0F800904A
:10097000FFF7D2FD074604E0FFF7CEFDC01B0228BB
:100980000FD8686A8007F7D571484FF4FA510068AC
:10099000B0FBF1F0009000BF0098411E0091FAD228
:1009A0000EE080E0C0F80080FFF7B6FD074604E0E7
:1009B000FFF7B2FDC01B022875D8686A8007F7D41C
:1009C0002078400760D5E8690027C00008D4E869AE
:1009D00040F08050E861E869012700F08050009005
:1009E0005C480168C90513D40168834641F48071ED
:1009F0000160FFF791FD824606E000BFFFF78CFD26
:100A0000A0EB0A0064284ED8DBF80000C005F5D53D
:100A1000E06801280AD008B1052813D0286A20F020
:100A200001002862286A20F0040002E0286A40F0F1
:100A300001002862E06841F2883B98B1FFF76CFD45
:100A400082460BE0286A40F004002862EEE700BF0F
:100A5000FFF762FDA0EB0A0159455AD8286A8007C2
:100A6000F6D50CE0FFF758FD824605E0FFF754FD90
:100A7000A0EB0A0159454CD8286A8007F6D41FB16B
:100A8000E86920F08050E861E06988B36968C1F3E3
:100A90008101022944D00228C6F8608004D0FFF703
:100AA0003BFD044638E034E0FFF736FD074604E03E
:100AB000FFF732FDC01B02282BD828688001F7D42D
:100AC000206AB0F5803F05D16868A16820F4003045
:100AD00008436860D4E908010843696821F4741187
:100AE00008436860C6F86090FFF716FD044606E00C
:100AF00025E000BFFFF710FD001B022809D8286879
:100B00008001F7D51BE000BFFFF706FD001B0228A0
:100B100002D90320BDE8F88F28688001F4D40EE0E4
:100B20000128F7D06868226A00F48031914204D12C
:100B3000616A00F47010884201D00120EAE70020C9
:100B4000E8E70000001002400000424280044242F8
:100B5000240000200070004070B5040009D0606AD5
:100B6000002540B125616561A56294F8510040B14E
:100B70000CE0012070BD6068B0F5827FF4D0E561C3
:100B8000F2E784F85050204600F040F8022084F844
:100B900051002068016821F040010160A08821898E
:100BA00000F4827001F404410843A18901F400615A
:100BB0000843217C01F002010843217D01F001017D
:100BC0000843218B01F400710843217F01F03801B3
:100BD000084394F8201001F080010843218D01F4AE
:100BE0000051084321680860A069042101EA10400F
:100BF000216848602068C16921F40061C1616565B0
:100C0000012084F85100002070BD000030B585B08F
:100C100000240094019402940394006814498842CB
:100C200023D11448816941F480518161816901F4C3
:100C300080510491816941F00401816180690E4D08
:100C400000F004000490A0200090022001900320F6
:100C5000039069462846FFF769FB4020CDE9000470
:100C6000694628460294FFF761FB05B030BD0000DD
:100C70000030014000100240000801402DE9F84F0B
:100C8000044690F8500000271D4616468946012864
:100C90000DD04FF0010B84F850B0FFF73DFC8046BB
:100CA00094F85100BA46012804D0022793E00220AC
:100CB000BDE8F88FB9F1000F73D0002E71D003207A
:100CC00084F85100C4F854A0C4F83090A686E68693
:100CD000C4F838A0A4F83CA0A4F83EA0C4F844A0EE
:100CE000C4F840A0A068B0F5004F09D120680168A1
:100CF00021F0400101602068016841F480410160F9
:100D000020680168490603D4016841F04001016090
:100D1000E068B0F5006F606803D030B3012E24D0D6
:100D200041E008B1012E1CD1206B21680088C86009
:100D300006E020688168890709D5216B0988C160B0
:100D4000206B801C2063E08E401EE08609E0FFF7E8
:100D5000E3FBA0EB0800A84202D3681C01D031E0FD
:100D60007DB3E08E0028E4D120E0206B216800787C
:100D7000087306E020688168890709D5216B097826
:100D80000173206B401C2063E08E401EE0860AE069
:100D9000FFF7C2FBA0EB0800A84203D3681C02D0F7
:100DA00010E017E06DB1E08E0028E3D142462946FD
:100DB000204600F079FD08B120206065A06818B1D8
:100DC00006E0FFE7032706E02068C168806800901E
:100DD000606D00B1012784F851B084F850A0384606
:100DE00066E710B5401EB0F1807F01D3012010BD31
:100DF0004FF0E02460610F21601700F038FF002001
:100E0000A06107202061002010BD704770B5026806
:100E100004461068D168536910F00F0F52D003F0E8
:100E2000010501F490762E435FD0C20705D0CA05B4
:100E300003D5E26B42F00102E263420705D5DA070F
:100E400003D0E26B42F00202E263820705D5DA07C3
:100E500003D0E26B42F00402E263020707D501F01F
:100E600020022A4303D0E26B42F00802E263E26B05
:100E7000002A33D0800604D5880602D5204600F02B
:100E80004DFE20684069E16BC0F38010090700D473
:100E900028B3204600F034FE2068416949061AD57F
:100EA000416921F040014161606BA0B12D4941636E
:100EB000606BFFF7DDF9002810D0606B416BBDE877
:100EC00070400847830610D58B060ED52046BDE836
:100ED000704000F023BE2046FFF797FF70BD20460C
:100EE000FFF793FF0020E06370BD03062BD50B06D0
:100EF00029D594F839002128F6D1A068B0F5805F93
:100F000001D12069B0B1206A411C216221680078BA
:100F10004860E08C401E0004000CE084E4D12068AE
:100F2000C16821F08001C1602068C16841F04001C2
:100F3000C16070BD206A0088C0F308005060206A5C
:100F4000801C2062E5E74006F3D54806F1D5D1685C
:100F5000204621F04001D160202184F8391000F0B2
:100F6000B9F870BDF11A000870B5040004D094F807
:100F70003900002510B106E0012070BD84F838501A
:100F8000204600F023F8242084F839002068C16846
:100F900021F40051C160204600F006FE206801697E
:100FA00021F4904101612068416921F02A014161E9
:100FB0002068C16841F40051C160E563202084F8D5
:100FC000390084F83A00002070BD000030B585B0CB
:100FD0000024009401940294039400681849884204
:100FE0002CD11848816941F480418161816901F403
:100FF00080410491816941F0040181618069124D51
:1010000000F0040004904FF4007000900220019062
:101010000320039069462846FFF788F92815CDE993
:101020000004694628460294FFF780F90022052152
:101030002520FFF7E3FA2520FFF7D2FA05B030BDEF
:1010400000380140001002400008014090F83A309A
:10105000202B22D1F9B1F2B190F83830012B1CD0FD
:1010600081628285C2850021C163222280F83A20F4
:1010700080F838100168CA6842F48072CA6001685A
:101080004A6942F001024A610068C16841F02001EA
:10109000C1600020704701207047022070470000A7
:1010A00010B543F6223207490748FFF7CFFF012268
:1010B00051030648FFF72AFA05480168491C0160F8
:1010C00010BD0000E00000205C3C0020001001404A
:1010D0000C0000207047FEE72DE9F05F9246DDE945
:1010E0000A723B4C9946CAF30728C3F30726012A24
:1010F00029D0022A5CD101F11003C21D00F02AFBA5
:10110000002208212046FFF701FA2C2000F03EFAC9
:10111000012208212046FFF7F9F92E48002500EBAF
:10112000071B0BEB05070024A7F58057C4F1070147
:1011300097F8000EC840C0073CD0404600F026FAA1
:101140000AF0FF003BE001F10803421D00F002FB42
:10115000002208212046FFF7D9F92C2000F016FACA
:10116000012208212046FFF7D1F91B48002400EB9B
:10117000C70B0BEB04070225A7F58057C5F1070144
:1011800097F8000FC840C00705D0404600F0FEF9B0
:101190000AF0FF0004E0304600F0F8F909F0FF0023
:1011A00000F0F4F96D1C082DE8DB641C082CE0DB72
:1011B000BDE8F09F304600F0E9F909F0FF0000F0CB
:1011C000E5F9641C082CB1DB6D1C102DA9DBEFE7E1
:1011D0000008014004F601082CF3010870B51C4614
:1011E0001546002822DB002920DB114B5A6890426B
:1011F0001CD29B68994219D2521E5B1E00F0AAFABB
:101200000C4E002208213046FFF780F92C2000F018
:10121000BDF9012208213046FFF778F9E8B200F065
:10122000B5F9E0B2BDE8704000F0B0B970BD0000A3
:1012300000000020000801402DE9FC470446DDE9DC
:101240000A652148994692460F46012D1CD0022D71
:101250001ED101210170804632E000BFD8F8041091
:1012600004EBC5028A4202D9012407EBC507CDE988
:1012700000054B46524639462046FFF72DFF04EB4A
:10128000C504A41E761C00E0804630780028E5D115
:10129000BDE8FC87D8F8041004EBC5028A4202D9E5
:1012A000012407EBC507CDE900054B4652463946F8
:1012B0002046FFF711FF98F80000761C04EBC004ED
:1012C00030780028E6D1E3E70000002070B5094C33
:1012D00005460021D4E901230846521E5B1E00F09A
:1012E00039FAD4E901104143A8B2BDE8704000F0DA
:1012F0007FB900000000002010B500F025F900F0D3
:10130000FFF8012000F0FEF9CB2000F0FBF93920B6
:1013100000F00CFA2C2000F009FA002000F006FA88
:10132000342000F003FA022000F000FACF2000F091
:10133000E9F9002000F0FAF9C12000F0F7F93020B7
:1013400000F0F4F9E82000F0DDF9852000F0EEF976
:10135000002000F0EBF9782000F0E8F9EA2000F036
:10136000D1F9002000F0E2F9002000F0DFF9ED20D3
:1013700000F0C8F9642000F0D9F9032000F0D6F994
:10138000122000F0D3F9812000F0D0F9F72000F00E
:10139000B9F9202000F0CAF9C02000F0B3F91020FC
:1013A00000F0C4F9C12000F0ADF9102000F0BEF942
:1013B000C52000F0A7F93E2000F0B8F9282000F081
:1013C000B5F9C72000F09EF9862000F0AFF936206D
:1013D00000F098F9482000F0A9F93A2000F092F9BD
:1013E000552000F0A3F9B12000F08CF9002000F0A6
:1013F0009DF9182000F09AF9B62000F083F9082032
:1014000000F094F9822000F091F9272000F08EF985
:10141000F22000F077F9002000F088F9262000F093
:1014200071F9012000F082F9E02000F06BF90F2043
:1014300000F07CF9312000F079F92B2000F076F9EA
:101440000C2000F073F90E2000F070F9082000F075
:101450006DF94E2000F06AF9F12000F067F93720AD
:1014600000F064F9072000F061F9102000F05EF947
:10147000032000F05BF90E2000F058F9092000F07D
:1014800055F9002000F052F9E12000F03BF900206E
:1014900000F04CF90E2000F049F9142000F046F954
:1014A000032000F043F9112000F040F9072000F07C
:1014B0003DF9312000F03AF9C12000F037F9482019
:1014C00000F034F9082000F031F90F2000F02EF977
:1014D0000C2000F02BF9312000F028F9362000F024
:1014E00025F90F2000F022F9112000F00BF9292036
:1014F00000F008F9BDE810402C2000F017B90000FA
:1015000010B5104C002204212046FEF7FFFF3220C8
:10151000FEF7FAFE012204212046FEF7F7FF002223
:1015200010212046FEF7F2FF3220FEF7EDFE0120EB
:1015300000F0E8F820460122BDE810401021FEF737
:10154000E5BF0000000801400F4810B50D490160DB
:101550004FF48271416000218160C1604FF40072DC
:101560000161C0E90512C1610162416281620A2123
:10157000C162FFF7F1FA002803D0BDE81040FEF782
:1015800075BE10BD003001408800002001B5012368
:101590001A4669460148FFF771FB08BD8800002024
:1015A00070B5124D0C460646002210212846FEF763
:1015B000ADFF002208212846FEF7A8FF3046FFF7BE
:1015C000E5FF012208212846FEF7A0FF200EFFF7C5
:1015D000DDFFC4F30740FFF7D9FFC4F30720FFF78F
:1015E000D5FFE0B2BDE87040FFF7D0BF0008014072
:1015F0002DE9F047DFF808910D46060A00F0FF08D4
:10160000002210214C464846FEF780FF00220821A8
:101610002046FEF77BFF2C20FFF7B8FF01220821B0
:101620002046FEF773FF3046FFF7B0FF4046FFF756
:10163000ADFF6D1EC5F38F1446451DD049E0102641
:101640004046FFF7A3FF4046FFF7A0FF4046FFF7E5
:101650009DFF4046FFF79AFF4046FFF797FF404641
:10166000FFF794FF4046FFF791FF4046FFF78EFFDC
:10167000761E16F0FF06E3D1641EA4B2DFD205F099
:101680003F0405E04046FFF781FF4046FFF77EFF3D
:10169000641EE4B2F6D22BE010273046FFF776FF47
:1016A0004046FFF773FF3046FFF770FF4046FFF7F5
:1016B0006DFF3046FFF76AFF4046FFF767FF304691
:1016C000FFF764FF4046FFF761FF7F1E17F0FF073B
:1016D000E3D1641EA4B2DFD205F03F0405E030463A
:1016E000FFF754FF4046FFF751FF641EE4B2F6D205
:1016F0004846BDE8F04701221021FEF707BF000071
:101700000008014070B5084C05460022082120461B
:10171000FEF7FCFE002210212046FEF7F7FE2846C9
:10172000BDE87040FFF732BF0008014070B5084CBB
:101730000546012208212046FEF7E8FE002210217E
:101740002046FEF7E3FE2846BDE87040FFF71EBFC7
:101750000008014070B50C4642EA00411D462A20AF
:10176000FFF71EFF45EA0441BDE870402B20FFF75C
:1017700017BF00002DE9F04107463620FFF7C2FFF2
:101780000D4CF0264FF4A07567B1012F0CD0022F3D
:101790000CD0032F04D1E820FFF7C8FFC4E901569D
:1017A000BDE8F081482002E02820F5E78820FFF717
:1017B000BDFFC4E90165F3E7000000202DE9F04119
:1017C00086B0002424480094019402940394816913
:1017D00041F020018161816901F02001049181695A
:1017E00041F004018161816901F004010491816982
:1017F00041F0080181618069184F00F008000490F1
:1018000000221C213846FEF781FEDFF854800022BA
:10181000D0214046FEF77AFE1C2001250226CDE9A4
:101820000005CDE9024669463846FEF77FFDD02027
:10183000CDE90005CDE9024669464046FEF776FD52
:101840004FF44070CDE90004694640460294FEF72B
:101850006DFD06B0BDE8F0810010024000080140B7
:10186000000C01400E4810B50C4901604FF4827124
:10187000416000218160C1604FF400720161C0E9E4
:101880000512C1610162416281620A21C162FFF7F2
:1018900063F9002801D072B6FEE710BD00300140A8
:1018A000043C0020FEE7FEE738B50B4600920446F4
:1018B0000022802100F008F8002804D0606D40F07C
:1018C00020006065032038BD2DE9F8431E4691468F
:1018D00088460446089DFEF71FFE401B351AFEF79A
:1018E0001BFE074625480068C0F3CB30684338E04C
:1018F000701C37D0FEF710FEC01BA84203D215B1F2
:10190000009860B32CE02068416821F0E00141605C
:101910006068B0F5827F0BD1A068B0F5004F02D0AF
:10192000B0F5806F04D12068016821F040010160AA
:10193000A06AB0F5005F09D12068016821F4005168
:1019400001602068016841F400510160012084F8C1
:101950005100002084F850000320BDE8F8830025E2
:10196000401E00902068816838EA010004D0002100
:101970004945BDD10020F0E70121F9E7240000200E
:101980001CB543F622321E491E48FFF75FFB0320B9
:10199000FFF7F0FEFEF74AFC02211BA0CDE9000193
:1019A00000234FF6FF720A21AA20FFF745FCDFF85B
:1019B000688000BFD8F8000001281CD1104F002417
:1019C0000025AE2004F11E0904FB00F606EB4500DD
:1019D000C1193A5C4B78494605F1A000FFF7FEFBC0
:1019E0006D1CADB2572DF1D3641CA4B2572CE7D3B4
:1019F0000021C8F80010012000F0A6F9DAE7000085
:101A0000E00000205C3C0020416E68207472757913
:101A1000656E2055415254000C000020012000F05A
:101A200093F9FBE710B5FEF77DFD00F0FBFD012803
:101A300003D0BDE8104000F087BD10BD30B58FB0B9
:101A400028216846FEF7D3FB14210AA8FEF7CFFB36
:101A500001210804CDE9001000240294022504911C
:101A6000CDE907504FF4E01009906846FEF7E4FE18
:101A700008B172B6FEE70F20CDE90A054FF4806089
:101A8000CDE90C4002210AA80E94FEF7E9FD0028DA
:101A900001D072B6FEE70FB030BD70472DE9FF41AF
:101AA00000244FF44070CDE900040F4F0225694631
:101AB0003846CDE90245FEF739FC10200126CDE974
:101AC000000669463846CDE90245FEF72FFCC020E6
:101AD000CDE9000669460548CDE90245FEF726FC3A
:101AE00004B00120BDE8F081000C0140001001406D
:101AF00010B5406A0021C185C184FFF786F910BD89
:101B00000168CA6822F49072CA6001684A6922F0CA
:101B100001024A61202180F83A10704710B590F810
:101B20003A10222901D0022010BD82684FF4805360
:101B30009A4201D1016921B1816A9A421BD04AB10E
:101B40000AE00268816A5268C2F308020A80816A68
:101B5000891C08E0026972B10268526802F07F02D3
:101B60000A70816A491C8162C18D491E0904090CF1
:101B7000C18503D016E002685268F1E70168CA68BF
:101B800022F02002CA600168CA6822F48072CA602A
:101B900001684A6922F001024A61202180F83A1066
:101BA000FFF77EFA002010BD70B504460068016999
:101BB000E26821F44051114301612169A0680843A2
:101BC000616908432168CA6841F20C639A43024381
:101BD000CA6020684169A26921F4407111434161E2
:101BE0001E492068884202D1FEF7E0FD01E0FEF7C1
:101BF000CDFD00EBC00101EB0012606864218000A4
:101C0000B2FBF0F3B3FBF1F36FF018067343B2FBD2
:101C1000F0F5B2FBF0F605EB8305322303EB051577
:101C2000B5FBF1F5B6FBF1F605F0F00505EB061591
:101C3000B2FBF0F6B2FBF0F0B0FBF1F06FF018027F
:101C4000504306EB800003EB0010B0FBF1F021687D
:101C500000F00F002844886070BD0000003801408B
:101C60000148FFF7D3B800005C3C0020FEE70907FD
:101C7000090E002804DB00F1E02080F80014704712
:101C800000F00F0000F1E02080F8141D704702E022
:101C900008C8121F08C1002AFAD1704770470020F7
:101CA00001E001C1121F002AFBD170478EB0FEF780
:101CB00041FCFFF7C3FEFFF781FDFFF7D3FD1C4892
:101CC0001A490C2201604FF4E1314160002181602A
:101CD000C160C0E904128161C161FFF745F908B133
:101CE00072B6FEE7FFF708FBFFF7D8FE0120FFF70B
:101CF00041FD0020FFF7EAFA1C220E496846FEF774
:101D00005DFA0021684600F02BF80B4C09491C22B3
:101D100060601C3107A8FEF751FA002107A800F007
:101D20001FF8A06000F017F8FEE70000003801403F
:101D30005C3C0020F4FB01080C0000200146002060
:101D4000842900D0C81C704710B500B9012000F0EC
:101D500015FB002010BD10B500F036FB002010BDB3
:101D60007FB50D4604464169B0F9080081B1A1690B
:101D700071B1FFF7E3FFD4E905128DE80700D4E95C
:101D800000102B46226900F022FC039004B070BDC5
:101D9000FFF7D4FF03A9CDE90001208A2B4682B2C8
:101DA000D4E9001000F0E6FB012801D00020EDE7A7
:101DB0000398EBE72DE9F041184C0F46054666699C
:101DC0002068001D00F016FA38B9206890F82C1031
:101DD00001208840A1698143A161681C07D137B106
:101DE0002168BDE8F0410E48091D00F047BA20689F
:101DF0003544B5424560216805D2A068BDE8F04190
:101E0000091D00F023BA6068091D00F01FFA206B5D
:101E1000854200D22563BDE8F08100002800002043
:101E2000CC3F00202DE9F041054600F033FA2E4C5E
:101E30002069401C206120682C4F10B1E06940B33C
:101E40002DE025602069012829D1002606EB8600B7
:101E500007EB800000F0ECF9761C072EF6D3234840
:101E60008C3000F0E5F92148A03000F0E1F91F487E
:101E7000B43000F0DDF91D48C83000F0D9F91B4836
:101E8000DC3000F0D5F919488C3060601430A06067
:101E900005E02068E96AC06A884200D82560E06AE7
:101EA000401CE062E96A0120A26988401043A061F9
:101EB00001EB810007EB8000291D00F0DFF900F045
:101EC00009FAE06900280CD02068E96AC06A8842F3
:101ED00007D207494FF080500860BFF34F8FBFF320
:101EE0006F8FBDE8F081000028000020F03E002048
:101EF00004ED00E010B5044690F8510058B10128F7
:101F00000CD002280FD0502080F31188BFF34F8FE0
:101F1000BFF36F8FFEE7206B00F0F0F92046BDE8BD
:101F2000104000F0EBB910BD10484FF4406142077B
:101F300006D0C01D0D4920F00700411AC1F54061CF
:101F40000B4A00230144C2E900030839103A21F08A
:101F5000070111604B600B600B1AC0E9001393601E
:101F60004FF000405360D06070470000E03F002019
:101F700074000020144E154CA6F1C8074FF080588D
:101F8000DFF84C9012E000BF00F084F9F068C568FB
:101F9000281D00F02FF92069401E2061E068401ED6
:101FA000E06000F097F92846FFF7A4FFE0680028FA
:101FB000EAD138680128F9D9C9F80080BFF34F8FFA
:101FC000BFF36F8FF2E70000B83F00202800002029
:101FD00004ED00E02DE9F0479A46DDE909848146E9
:101FE0006FF00303206B03EB82021044089D20F086
:101FF0000706700707D0502080F31188BFF34F8F7A
:10200000BFF36F8FFEE723180A5C83F834200A5C65
:1020100012B1401C1028F6D3002784F84370072D16
:1020200000D30625E562C4E91157201D00F00BF925
:1020300004F1180000F007F92461C5F1070064629B
:10204000A061E76484F8507052464946304600F07B
:10205000BFF82060B8F1000F01D0C8F80040BDE81B
:10206000F087000030B5114900E011460A6882424D
:10207000FBD34B685C18844203D140681844486025
:10208000084643681C18944209D1084C103C246847
:10209000A24209D052681A4442600A68126802607B
:1020A000814200D0086030BD0460F9E77400002070
:1020B00006484168096829B14168C968C968496822
:1020C000016370474FF0FF31FAE70000280000205D
:1020D00008484068401C4FF0500080F3118804D03D
:1020E000BFF34F8FBFF36F8FFEE7BFF34F8FBFF389
:1020F0006F8FFEE77C0000202DE9F04105460027A8
:1021000000F098F9314E306808B9FFF70DFFF0681C
:1021100005424BD1C5B3083568070ED005F007005E
:10212000C0F108000544680707D0502080F31188EB
:10213000BFF34F8FBFF36F8FFEE72DB370688542FB
:1021400034D82248103001460C6801E020460C4685
:102150006168A94202D221680029F7D131688C4216
:1021600024D007682168016060680837411B102986
:102170000FD96019420708D0502080F31188BFF3AF
:102180004F8FBFF36F8FFEE710E041606560FFF790
:1021900069FF61687068401A7060B268904200D24E
:1021A000B060F06801430020C4E9000100F0ACFA1F
:1021B000780707D0502080F31188BFF34F8FBFF30B
:1021C0006F8FFEE73846BDE8F08100006400002014
:1021D00010B5031F4FF080741C601B1F21F001011C
:1021E0001960191F024B0B60143940380A6010BD8A
:1021F000D1200008D0E9013201699A60D0E90123B9
:102200005A604A68824201D182684A6000220261B3
:102210000868401E0860086870470000034B0360B0
:1022200003F1540008608020106070479C3C00203F
:1022300000F108014FF0FF32C0E90112C1600161F5
:1022400000210160704700210161704730B50B68C3
:102250005A1C02D000F1080202E0026904E02246A2
:10226000546825689D42FAD953684B6099608A602A
:10227000516008610168491C016030BD42684A60D4
:1022800093688B6093685960916008610168491C8C
:1022900001607047502080F31188BFF34F8FBFF368
:1022A0006F8F0A494868401C486001280CD10848D3
:1022B000006810F0FF0F07D0502080F31188BFF3A3
:1022C0004F8FBFF36F8FFEE7704700007C00002048
:1022D00004ED00E00849486828B1401E486001D17B
:1022E00080F311887047502080F31188BFF34F8F1F
:1022F000BFF36F8FFEE700007C00002070B5002860
:1023000027D0144DA0F108046168E868014207D1A4
:10231000502080F31188BFF34F8FBFF36F8FFEE71C
:1023200022683AB1502080F31188BFF34F8FBFF37A
:102330006F8FFEE78143616000F07CF86068696838
:10234000084468602046FFF78DFEBDE8704000F04D
:10235000DBB970BD640000204FF0E0200021016176
:10236000816105494FF47A720968B1FBF2F1491EA7
:1023700041610721016170472400002010B502006F
:1023800014D00F48806B38B1502080F31188BFF310
:102390004F8FBFF36F8FFEE700F04CF8002110461F
:1023A000FFF708FD00F0B0F9002807D105494FF00C
:1023B00080500860BFF34F8FBFF36F8F10BD0000D8
:1023C0002800002004ED00E010B586B0002403943E
:1023D00005AA04A903A80494FFF720FFDDE903017F
:1023E0000094CDE9011000230EA11048059A00F0D9
:1023F000EEF80F490028486311D0502080F311886F
:10240000BFF34F8FBFF36F8F4FF0FF300863012092
:10241000C8614C6106B0BDE8104000F041B806B09C
:1024200010BD000049444C4500000000751F000825
:10243000280000200248816B491C8163704700001E
:10244000280000201448816B11B1012141627047BE
:10245000002141628169B1FA81F1C1F11F0101EBF3
:1024600081020E4951F822306BB101EB820101F17A
:1024700008034A6852684A609A4201D152684A6029
:10248000D16801607047502080F31188BFF34F8FEF
:10249000BFF36F8FFEE7000028000020F03E002011
:1024A0001CB5264908780190FF20087008788DF83F
:1024B00000009DF800009DF8002000F0F000904220
:1024C00007D0502080F31188BFF34F8FBFF36F8F79
:1024D000FEE79DF800001A4B00F05000187007202E
:1024E000986005E09DF8002052008DF80020401E05
:1024F0009DF800201206F5D49860032807D05020DC
:1025000080F31188BFF34F8FBFF36F8FFEE74FF457
:1025100040709860019808700A48016841F47001A1
:102520000160016841F070410160FFF715FF002074
:102530005860FDF7F7FD00201CBD000000E400E03E
:102540007C00002020ED00E010B5502080F31188C1
:10255000BFF34F8FBFF36F8F00F072F818B10449CB
:102560004FF080500860002080F3118810BD0000FB
:1025700004ED00E02DE9FF5F8346DDE90E87994613
:1025800016468A469000FFF7B7FD05001CD0542080
:10259000FFF7B2FD040014D00020256384F8510039
:1025A000CDE90240CDE900874B46324651465846B8
:1025B000FFF710FD2046FFF735FC012004B0BDE811
:1025C000F09F2846FFF79AFE4FF0FF30F6E7F0B590
:1025D00085B0DDE90B640A9DA6B1DCB154270097F4
:1025E0002663022684F85160002604AFCDE9024636
:1025F000CDE90057FFF7EEFC2046FFF713FC0498E7
:1026000005B0F0BD502080F31188BFF34F8FBFF3AA
:102610006F8FFEE7502080F31188BFF34F8FBFF319
:102620006F8FFEE70548C16919B1806B18B10020B2
:1026300070470120704702207047000028000020EA
:102640002DE9F0412E4C0027A06B40B1206A401CC0
:102650002062606A00B101273846BDE8F0816669F2
:10266000761C666113D16068006838B1502080F331
:102670001188BFF34F8FBFF36F8FFEE76068A168CB
:102680006160A060A06A401CA062FFF711FD206B92
:10269000DFF87080864209D36068006880B16068A6
:1026A000C068C568686886420DD220632068C06A29
:1026B00000EB800158F821000128CAD90127C8E79A
:1026C0004FF0FF30F1E7281DFFF794FDA86A18B11D
:1026D00005F11800FFF78EFDE86A0121A26981402B
:1026E0001143A16100EB800108EB8100291DFFF778
:1026F000C5FDE86A2168C96A8842CDD30127CBE7C6
:1027000028000020F03E00202DE9F0472C4D002449
:102710002746A86B38B1FFF7BDFDA86B401EA86324
:10272000A86B40B146E0502080F31188BFF34F8F73
:10273000BFF36F8FFEE72969224E0120D1B3A6F1C6
:10274000B40980463068E8B1F068C46804F1180044
:10275000FFF750FD201DFFF74DFDE06AAA6908FA5A
:1027600000F11143A96100EB800109EB8100211DFB
:10277000FFF784FDE06A2968C96A8842E2D3C5F898
:102780002480DFE70CB1FFF793FC2C6A44B1464686
:10279000FFF756FF00B16E62641EF9D10020286277
:1027A000686A38B10849012738070860BFF34F8FBE
:1027B000BFF36F8FFFF78EFD3846BDE8F08700004E
:1027C00028000020A43F002004ED00E0FFFF0000EF
:1027D000FFFF0000FFFF0000FFFF0000FFFF000001
:1027E000FFFF0000FFFF0000FFFF0000FFFF0000F1
:1027F000FFFF0000FFFF0000FFFF0000FFFF0000E1
:10280000FFFF0000FFFF0000FFFF0000FFFF0000D0
:10281000000000000000000000000000FFFF0000BA
:10282000000000000000000000000000FFFF0000AA
:10283000000000000000000000000000FFFF00009A
:10284000000000000000000000000000FFFF00008A
:10285000000000000000000000000000FFFF00007A
:10286000000000000000000000000000FFFF00006A
:10287000000000000000000000000000FFFF00005A
:10288000000000000000000000000000FFFF00004A
:10289000000000000000000000000000FFFF00003A
:1028A000000000000000000000000000FFFF00002A
:1028B000FFFF00000000000000000000FFFF00001C
:1028C000000000000000000000000000FFFF00000A
:1028D000000000000000000000000000FFFF0000FA
:1028E000000000000000000000000000FFFF0000EA
:1028F000000000000000000000000000FFFF0000DA
:10290000FFFF00000000000000000000FFFF0000CB
:10291000000000000000000000000000FFFF0000B9
:10292000000000000000000000000000FFFF0000A9
:10293000000000000000000000000000FFFF000099
:10294000000000000000000000000000FFFF000089
:10295000FFFF0000FFFF0000FFFF0000FFFF00007F
:10296000000000000000000000000000FFFF000069
:10297000000000000000000000000000FFFF000059
:10298000000000000000000000000000FFFF000049
:10299000000000000000000000000000FFFF000039
:1029A000FFFF0000FFFF0000FFFF0000FFFF00002F
:1029B000000000000000000000000000FFFF000019
:1029C000000000000000000000000000FFFF000009
:1029D000000000000000000000000000FFFF0000F9
:1029E000000000000000000000000000FFFF0000E9
:1029F000FFFF00000000000000000000FFFF0000DB
:102A0000000000000000000000000000FFFF0000C8
:102A1000000000000000000000000000FFFF0000B8
:102A2000000000000000000000000000FFFF0000A8
:102A3000000000000000000000000000FFFF000098
:102A4000FFFF00000000000000000000FFFF00008A
:102A5000000000000000000000000000FFFF000078
:102A6000000000000000000000000000FFFF000068
:102A7000000000000000000000000000FFFF000058
:102A8000000000000000000000000000FFFF000048
:102A9000000000000000000000000000FFFF000038
:102AA000FFFF0000FFFF0000FFFF0000FFFF00002E
:102AB000FFFF0000FFFF0000FFFF0000FFFF00001E
:102AC000FFFF0000FFFF0000FFFF0000FFFF00000E
:102AD000FFFF0000FFFF0000FFFF0000FFFF0000FE
:102AE0000000000000000000000000001F000000C7
:102AF0001F0000001F0000001F0000001F0000005A
:102B00001F0000001F0000001F0000001F00000049
:102B10001F0000001F0000001F0000001F00000039
:102B20001F0000001F0000001F0000001F00000029
:102B30001F0000001F0000001F0000001F00000019
:102B40001F0000001F0000001F0000001F00000009
:102B50001F0000001F0000001F0000001F000000F9
:102B60001F0000001F0000001F0000001F000000E9
:102B70001F0000001F0000001F0000001F000000D9
:102B80001F0000001F0000001F0000001F000000C9
:102B90001F0000001F0000001F0000001F000000B9
:102BA0001F0000001F0000001F000000E0FF0000E9
:102BB000E0FF0000E0FF0000E0FF00001F00000059
:102BC0001F0000001F0000001F0000001F00000089
:102BD0001F0000001F0000001F0000001F00000079
:102BE0001F0000001F0000001F0000001F00000069
:102BF0001F0000001F000000E0FF0000E0FF0000D9
:102C0000E0FF0000E0FF0000E0FF0000E0FF000048
:102C10001F0000001F0000001F0000001F00000038
:102C20001F0000001F0000001F0000001F00000028
:102C30001F0000001F0000001F0000001F00000018
:102C40001F000000E0FF0000E0FF00001F00000088
:102C50001F0000001F0000001F000000E0FF000038
:102C6000E0FF00001F0000001F0000001F00000028
:102C70001F0000001F0000001F0000001F000000D8
:102C80001F0000001F0000001F0000001F000000C8
:102C9000E0FF0000E0FF00001F0000001F00000038
:102CA0001F0000001F0000001F0000001F000000A8
:102CB000E0FF0000E0FF00001F0000001F00000018
:102CC0001F0000001F0000001F0000001F00000088
:102CD0001F0000001F0000001F000000E0FF0000B8
:102CE000E0FF00001F0000001F0000001F000000A8
:102CF0001F0000001F0000001F0000001F00000058
:102D00001F000000E0FF0000E0FF00001F000000C7
:102D10001F0000001F0000001F0000001F00000037
:102D20001F0000001F000000E0FF0000E0FF0000A7
:102D30001F0000001F0000001F0000001F00000017
:102D40001F0000001F0000001F0000001F00000007
:102D50001F0000001F000000E0FF0000E0FF000077
:102D60001F0000001F0000001F0000001F000000E7
:102D70001F000000E0FF0000E0FF00001F00000057
:102D80001F0000001F0000001F0000001F000000C7
:102D90001F0000001F0000001F0000001F000000B7
:102DA0001F0000001F0000001F000000E0FF0000E7
:102DB000E0FF00001F0000001F0000001F000000D7
:102DC0001F000000E0FF0000E0FF00001F00000007
:102DD0001F0000001F0000001F0000001F00000077
:102DE0001F0000001F0000001F0000001F00000067
:102DF0001F0000001F0000001F000000E0FF000097
:102E0000E0FF00001F0000001F0000001F00000086
:102E10001F000000E0FF0000E0FF00001F000000B6
:102E20001F0000001F0000001F0000001F00000026
:102E30001F0000001F0000001F0000001F00000016
:102E40001F0000001F0000001F000000E0FF000046
:102E5000E0FF00001F0000001F0000001F00000036
:102E60001F000000E0FF0000E0FF0000E0FF0000A6
:102E7000E0FF0000E0FF0000E0FF0000E0FF0000D6
:102E8000E0FF0000E0FF0000E0FF0000E0FF0000C6
:102E9000E0FF0000E0FF0000E0FF0000E0FF0000B6
:102EA000E0FF00001F0000001F0000001F000000E6
:102EB0001F000000E0FF0000E0FF0000E0FF000056
:102EC000E0FF0000E0FF0000E0FF0000E0FF000086
:102ED000E0FF0000E0FF0000E0FF0000E0FF000076
:102EE000E0FF0000E0FF0000E0FF0000E0FF000066
:102EF000E0FF00001F0000001F0000001F00000096
:102F00001F000000E0FF0000E0FF00001F000000C5
:102F10001F0000001F0000001F0000001F00000035
:102F20001F0000001F0000001F0000001F00000025
:102F30001F0000001F0000001F000000E0FF000055
:102F4000E0FF00001F0000001F0000001F00000045
:102F50001F000000E0FF0000E0FF00001F00000075
:102F60001F0000001F0000001F0000001F000000E5
:102F70001F0000001F0000001F0000001F000000D5
:102F80001F0000001F0000001F000000E0FF000005
:102F9000E0FF00001F0000001F0000001F000000F5
:102FA0001F000000E0FF0000E0FF00001F00000025
:102FB0001F0000001F0000001F0000001F00000095
:102FC0001F0000001F0000001F0000001F00000085
:102FD0001F0000001F0000001F000000E0FF0000B5
:102FE000E0FF00001F0000001F0000001F000000A5
:102FF0001F000000E0FF0000E0FF00001F000000D5
:103000001F0000001F0000001F0000001F00000044
:103010001F0000001F0000001F0000001F00000034
:103020001F0000001F0000001F000000E0FF000064
:10303000E0FF00001F0000001F0000001F00000054
:103040001F000000E0FF0000E0FF00001F00000084
:103050001F0000001F0000001F0000001F000000F4
:103060001F0000001F0000001F0000001F000000E4
:103070001F0000001F0000001F000000E0FF000014
:10308000E0FF00001F0000001F0000001F00000004
:103090001F0000001F0000001F0000001F000000B4
:1030A0001F0000001F0000001F0000001F000000A4
:1030B0001F0000001F0000001F0000001F00000094
:1030C0001F0000001F0000001F0000001F00000084
:1030D0001F0000001F0000001F0000001F00000074
:1030E0001F0000001F0000001F0000001F00000064
:1030F0001F0000001F0000001F0000001F00000054
:103100001F0000001F0000001F0000001F00000043
:103110001F0000001F0000001F0000001F00000033
:103120001F0000001F0000001F0000001F00000023
:103130001F0000001F0000001F0000001F00000013
:103140001F0000001F0000001F0000001F00000003
:103150001F0000001F0000001F0000001F000000F3
:103160001F0000001F0000001F0000001F000000E3
:103170001F0000001F0000001F0000001F000000D3
:103180001F0000001F0000001F0000001F000000C3
:103190001F0000001F0000001F0000001F000000B3
:1031A0001F0000001F0000001F0000001F000000A3
:1031B0001F0000001F0000001F0000001F00000093
:1031C0001F0000001F0000001F0000001F00000083
:1031D0001F000000E0FF0000E0FF0000E0FF000033
:1031E000E0FF0000E0FF0000E0FF0000E0FF000063
:1031F000E0FF0000E0FF0000E0FF0000E0FF000053
:10320000E0FF00001F0000001F0000001F00000082
:103210001F0000001F0000001F0000001F00000032
:103220001F000000E0FF0000E0FF0000E0FF0000E2
:10323000E0FF0000E0FF0000E0FF0000E0FF000012
:10324000E0FF0000E0FF0000E0FF0000E0FF000002
:10325000E0FF0000E0FF00001F0000001F00000072
:103260001F0000001F0000001F0000001F000000E2
:103270001F000000E0FF0000E0FF00001F00000052
:103280001F0000001F0000001F0000001F000000C2
:103290001F0000001F0000001F0000001F000000B2
:1032A0001F000000E0FF0000E0FF00001F00000022
:1032B0001F0000001F0000001F0000001F00000092
:1032C0001F000000E0FF0000E0FF00001F00000002
:1032D0001F0000001F0000001F0000001F00000072
:1032E0001F0000001F0000001F0000001F00000062
:1032F0001F0000001F000000E0FF0000E0FF0000D2
:103300001F0000001F0000001F0000001F00000041
:103310001F000000E0FF0000E0FF00001F000000B1
:103320001F0000001F0000001F0000001F00000021
:103330001F0000001F0000001F0000001F00000011
:103340001F0000001F0000001F000000E0FF000041
:10335000E0FF00001F0000001F0000001F00000031
:103360001F000000E0FF0000E0FF00001F00000061
:103370001F0000001F0000001F0000001F000000D1
:103380001F0000001F0000001F0000001F000000C1
:103390001F0000001F0000001F000000E0FF0000F1
:1033A000E0FF00001F0000001F0000001F000000E1
:1033B0001F000000E0FF0000E0FF00001F00000011
:1033C0001F0000001F0000001F0000001F00000081
:1033D0001F0000001F0000001F0000001F00000071
:1033E0001F0000001F000000E0FF0000E0FF0000E1
:1033F000E0FF00001F0000001F0000001F00000091
:103400001F000000E0FF0000E0FF0000E0FF000000
:10341000E0FF0000E0FF0000E0FF0000E0FF000030
:10342000E0FF0000E0FF0000E0FF0000E0FF000020
:10343000E0FF0000E0FF0000E0FF0000E0FF000010
:103440001F0000001F0000001F0000001F00000000
:103450001F000000E0FF0000E0FF0000E0FF0000B0
:10346000E0FF0000E0FF0000E0FF0000E0FF0000E0
:10347000E0FF0000E0FF0000E0FF0000E0FF0000D0
:10348000E0FF0000E0FF0000E0FF0000E0FF0000C0
:103490001F0000001F0000001F0000001F000000B0
:1034A0001F000000E0FF0000E0FF00001F00000020
:1034B0001F0000001F0000001F0000001F00000090
:1034C0001F0000001F0000001F0000001F00000080
:1034D0001F0000001F0000001F000000E0FF0000B0
:1034E000E0FF00001F0000001F0000001F000000A0
:1034F0001F000000E0FF0000E0FF00001F000000D0
:103500001F0000001F0000001F0000001F0000003F
:103510001F0000001F0000001F0000001F0000002F
:103520001F0000001F0000001F000000E0FF00005F
:10353000E0FF00001F0000001F0000001F0000004F
:103540001F000000E0FF0000E0FF00001F0000007F
:103550001F0000001F0000001F0000001F000000EF
:103560001F0000001F0000001F0000001F000000DF
:103570001F0000001F0000001F000000E0FF00000F
:10358000E0FF00001F0000001F0000001F000000FF
:103590001F000000E0FF0000E0FF00001F0000002F
:1035A0001F0000001F0000001F0000001F0000009F
:1035B0001F0000001F0000001F0000001F0000008F
:1035C0001F0000001F000000E0FF0000E0FF0000FF
:1035D0001F0000001F0000001F0000001F0000006F
:1035E0001F000000E0FF0000E0FF00001F000000DF
:1035F0001F0000001F0000001F0000001F0000004F
:103600001F0000001F0000001F0000001F0000003E
:103610001F000000E0FF0000E0FF00001F000000AE
:103620001F0000001F0000001F0000001F0000001E
:103630001F000000E0FF0000E0FF0000E0FF0000CE
:10364000E0FF0000E0FF0000E0FF0000E0FF0000FE
:10365000E0FF0000E0FF0000E0FF0000E0FF0000EE
:10366000E0FF0000E0FF00001F0000001F0000005E
:103670001F0000001F0000001F0000001F000000CE
:103680001F000000E0FF0000E0FF0000E0FF00007E
:10369000E0FF0000E0FF0000E0FF0000E0FF0000AE
:1036A000E0FF0000E0FF0000E0FF0000E0FF00009E
:1036B000E0FF00001F0000001F0000001F000000CE
:1036C0001F0000001F0000001F0000001F0000007E
:1036D0001F0000001F0000001F0000001F0000006E
:1036E0001F0000001F0000001F0000001F0000005E
:1036F0001F0000001F0000001F0000001F0000004E
:103700001F0000001F0000001F0000001F0000003D
:103710001F0000001F0000001F0000001F0000002D
:103720001F0000001F0000001F0000001F0000001D
:103730001F0000001F0000001F0000001F0000000D
:103740001F0000001F0000001F0000001F000000FD
:103750001F0000001F0000001F0000001F000000ED
:103760001F0000001F0000001F0000001F000000DD
:103770001F0000001F0000001F0000001F000000CD
:103780001F0000001F0000001F0000001F000000BD
:103790001F0000001F0000001F0000001F000000AD
:1037A0001F0000001F0000001F0000001F0000009D
:1037B0001F0000001F0000001F0000001F0000008D
:1037C0001F0000001F0000001F0000001F0000007D
:1037D0001F0000001F0000001F0000001F0000006D
:1037E0001F0000001F0000001F0000001F0000005D
:1037F0001F0000001F0000001F0000001F0000004D
:103800001F0000001F0000001F0000001F0000003C
:103810001F0000001F0000001F0000001F0000002C
:10382000E0FF0000E0FF0000E0FF0000E0FF00001C
:10383000E0FF0000E0FF0000E0FF0000E0FF00000C
:10384000E0FF0000E0FF0000E0FF0000E0FF0000FC
:103850001F0000001F0000001F0000001F000000EC
:103860001F0000001F0000001F000000E0FF00001C
:10387000E0FF0000E0FF0000E0FF0000E0FF0000CC
:10388000E0FF0000E0FF0000E0FF0000E0FF0000BC
:10389000E0FF0000E0FF0000E0FF0000E0FF0000AC
:1038A0001F0000001F0000001F0000001F0000009C
:1038B0001F0000001F000000E0FF0000E0FF00000C
:1038C0001F0000001F0000001F0000001F0000007C
:1038D0001F0000001F0000001F0000001F0000006C
:1038E0001F0000001F0000001F0000001F0000005C
:1038F0001F0000001F0000001F0000001F0000004C
:103900001F000000E0FF0000E0FF00001F000000BB
:103910001F0000001F0000001F0000001F0000002B
:103920001F0000001F0000001F0000001F0000001B
:103930001F0000001F0000001F0000001F0000000B
:103940001F0000001F0000001F0000001F000000FB
:103950001F000000E0FF0000E0FF00001F0000006B
:103960001F0000001F0000001F0000001F000000DB
:103970001F0000001F0000001F0000001F000000CB
:103980001F0000001F0000001F0000001F000000BB
:103990001F0000001F0000001F0000001F000000AB
:1039A0001F000000E0FF0000E0FF00001F0000001B
:1039B0001F0000001F0000001F0000001F0000008B
:1039C0001F0000001F0000001F0000001F0000007B
:1039D0001F0000001F0000001F0000001F0000006B
:1039E0001F0000001F0000001F0000001F0000005B
:1039F0001F000000E0FF0000E0FF00001F000000CB
:103A00001F0000001F0000001F0000001F0000003A
:103A10001F0000001F0000001F0000001F0000002A
:103A20001F0000001F0000001F0000001F0000001A
:103A30001F0000001F0000001F0000001F0000000A
:103A40001F000000E0FF0000E0FF00001F0000007A
:103A50001F0000001F0000001F0000001F000000EA
:103A60001F0000001F0000001F0000001F000000DA
:103A70001F0000001F0000001F0000001F000000CA
:103A80001F0000001F0000001F0000001F000000BA
:103A90001F000000E0FF0000E0FF00001F0000002A
:103AA0001F0000001F0000001F0000001F0000009A
:103AB0001F0000001F0000001F0000001F0000008A
:103AC0001F0000001F0000001F0000001F0000007A
:103AD0001F0000001F0000001F0000001F0000006A
:103AE0001F000000E0FF0000E0FF00001F000000DA
:103AF0001F0000001F0000001F0000001F0000004A
:103B00001F0000001F0000001F0000001F00000039
:103B10001F0000001F0000001F0000001F00000029
:103B20001F0000001F0000001F0000001F00000019
:103B30001F000000E0FF0000E0FF00001F00000089
:103B40001F0000001F0000001F0000001F000000F9
:103B50001F0000001F0000001F0000001F000000E9
:103B60001F0000001F0000001F0000001F000000D9
:103B70001F0000001F0000001F0000001F000000C9
:103B80001F000000E0FF0000E0FF00001F00000039
:103B90001F0000001F0000001F0000001F000000A9
:103BA0001F0000001F0000001F0000001F00000099
:103BB0001F0000001F0000001F0000001F00000089
:103BC0001F0000001F0000001F0000001F00000079
:103BD0001F000000E0FF0000E0FF00001F000000E9
:103BE0001F0000001F0000001F0000001F00000059
:103BF0001F0000001F0000001F0000001F00000049
:103C00001F0000001F0000001F0000001F00000038
:103C10001F0000001F0000001F0000001F00000028
:103C20001F0000001F000000E0FF0000E0FF000098
:103C30001F0000001F0000001F0000001F00000008
:103C40001F0000001F0000001F0000001F000000F8
:103C50001F0000001F0000001F0000001F000000E8
:103C60001F0000001F0000001F0000001F000000D8
:103C70001F0000001F0000001F000000E0FF000008
:103C8000E0FF0000E0FF0000E0FF0000E0FF0000B8
:103C9000E0FF0000E0FF0000E0FF0000E0FF0000A8
:103CA000E0FF0000E0FF0000E0FF0000E0FF000098
:103CB0001F0000001F0000001F0000001F00000088
:103CC0001F0000001F0000001F0000001F00000078
:103CD000E0FF0000E0FF0000E0FF0000E0FF000068
:103CE000E0FF0000E0FF0000E0FF0000E0FF000058
:103CF000E0FF0000E0FF0000E0FF0000E0FF000048
:103D00001F0000001F0000001F0000001F00000037
:103D10001F0000001F0000001F0000001F00000027
:103D20001F0000001F0000001F0000001F00000017
:103D30001F0000001F0000001F0000001F00000007
:103D40001F0000001F0000001F0000001F000000F7
:103D50001F0000001F0000001F0000001F000000E7
:103D60001F0000001F0000001F0000001F000000D7
:103D70001F0000001F0000001F0000001F000000C7
:103D80001F0000001F0000001F0000001F000000B7
:103D90001F0000001F0000001F0000001F000000A7
:103DA0001F0000001F0000001F0000001F00000097
:103DB0001F0000001F0000001F0000001F00000087
:103DC0001F0000001F0000001F0000001F00000077
:103DD0001F0000001F0000001F0000001F00000067
:103DE0001F0000001F0000001F0000001F00000057
:103DF0001F0000001F0000001F0000001F00000047
:103E00001F0000001F0000001F0000001F00000036
:103E10001F0000001F0000001F0000001F00000026
:103E20001F0000001F0000001F0000001F00000016
:103E30001F0000001F0000001F0000001F00000006
:103E40001F0000001F0000001F0000001F000000F6
:103E50001F000000E0FF0000E0FF0000E0FF0000A6
:103E6000E0FF0000E0FF0000E0FF0000E0FF0000D6
:103E7000E0FF0000E0FF0000E0FF0000E0FF0000C6
:103E8000E0FF0000E0FF00001F0000001F00000036
:103E90001F0000001F0000001F0000001F000000A6
:103EA0001F000000E0FF0000E0FF0000E0FF000056
:103EB000E0FF0000E0FF0000E0FF0000E0FF000086
:103EC000E0FF0000E0FF0000E0FF0000E0FF000076
:103ED000E0FF0000E0FF0000E0FF00001F00000026
:103EE0001F0000001F0000001F0000001F00000056
:103EF0001F000000E0FF0000E0FF00001F000000C6
:103F00001F0000001F0000001F0000001F00000035
:103F10001F0000001F0000001F0000001F00000025
:103F20001F0000001F000000E0FF0000E0FF000095
:103F30001F0000001F0000001F0000001F00000005
:103F40001F000000E0FF0000E0FF00001F00000075
:103F50001F0000001F0000001F0000001F000000E5
:103F60001F0000001F0000001F0000001F000000D5
:103F70001F0000001F0000001F000000E0FF000005
:103F8000E0FF00001F0000001F0000001F000000F5
:103F90001F000000E0FF0000E0FF00001F00000025
:103FA0001F0000001F0000001F0000001F00000095
:103FB0001F0000001F0000001F0000001F00000085
:103FC0001F0000001F0000001F000000E0FF0000B5
:103FD000E0FF00001F0000001F0000001F000000A5
:103FE0001F000000E0FF0000E0FF00001F000000D5
:103FF0001F0000001F0000001F0000001F00000045
:104000001F0000001F0000001F0000001F00000034
:104010001F0000001F0000001F000000E0FF000064
:10402000E0FF00001F0000001F0000001F00000054
:104030001F000000E0FF0000E0FF00001F00000084
:104040001F0000001F0000001F0000001F000000F4
:104050001F0000001F0000001F0000001F000000E4
:104060001F0000001F0000001F000000E0FF000014
:10407000E0FF00001F0000001F0000001F00000004
:104080001F000000E0FF0000E0FF00001F00000034
:104090001F0000001F0000001F0000001F000000A4
:1040A0001F0000001F0000001F0000001F00000094
:1040B0001F0000001F0000001F000000E0FF0000C4
:1040C000E0FF00001F0000001F0000001F000000B4
:1040D0001F000000E0FF0000E0FF00001F000000E4
:1040E0001F0000001F0000001F0000001F00000054
:1040F0001F0000001F0000001F0000001F00000044
:104100001F0000001F0000001F000000E0FF000073
:10411000E0FF00001F0000001F0000001F00000063
:104120001F000000E0FF0000E0FF00001F00000093
:104130001F0000001F0000001F0000001F00000003
:104140001F0000001F0000001F0000001F000000F3
:104150001F0000001F0000001F000000E0FF000023
:10416000E0FF00001F0000001F0000001F00000013
:104170001F000000E0FF0000E0FF00001F00000043
:104180001F0000001F0000001F0000001F000000B3
:104190001F0000001F0000001F0000001F000000A3
:1041A0001F0000001F0000001F000000E0FF0000D3
:1041B000E0FF00001F0000001F0000001F000000C3
:1041C0001F000000E0FF0000E0FF00001F000000F3
:1041D0001F0000001F0000001F0000001F00000063
:1041E0001F0000001F0000001F0000001F00000053
:1041F0001F0000001F0000001F000000E0FF000083
:10420000E0FF00001F0000001F0000001F00000072
:104210001F000000E0FF0000E0FF00001F000000A2
:104220001F0000001F0000001F0000001F00000012
:104230001F0000001F0000001F0000001F00000002
:104240001F0000001F0000001F000000E0FF000032
:10425000E0FF00001F0000001F0000001F00000022
:104260001F000000E0FF0000E0FF00001F00000052
:104270001F0000001F0000001F0000001F000000C2
:104280001F0000001F0000001F0000001F000000B2
:104290001F0000001F000000E0FF0000E0FF000022
:1042A0001F0000001F0000001F0000001F00000092
:1042B0001F000000E0FF0000E0FF0000E0FF000042
:1042C000E0FF0000E0FF0000E0FF0000E0FF000072
:1042D000E0FF0000E0FF0000E0FF0000E0FF000062
:1042E000E0FF0000E0FF0000E0FF00001F00000012
:1042F0001F0000001F0000001F0000001F00000042
:104300001F000000E0FF0000E0FF0000E0FF0000F1
:10431000E0FF0000E0FF0000E0FF0000E0FF000021
:10432000E0FF0000E0FF0000E0FF0000E0FF000011
:10433000E0FF0000E0FF00001F0000001F00000081
:104340001F0000001F0000001F0000001F000000F1
:104350001F0000001F0000001F0000001F000000E1
:104360001F0000001F0000001F0000001F000000D1
:104370001F0000001F0000001F0000001F000000C1
:1046A0001F0000001F000000FFFF00001F000000AF
:1046B0001F0000001F0000001F0000001F0000007E
:1046C0001F0000001F0000001F0000001F0000006E
:1046D0001F0000001F0000001F0000001F0000005E
:1046E0001F0000001F0000001F0000001F0000004E
:1046F0001F0000001F0000001F0000001F0000003E
:104700001F0000001F0000001F0000001F0000002D
:104710001F0000001F0000001F0000001F0000001D
:104720001F0000001F0000001F0000001F0000000D
:104730001F0000001F0000001F0000001F000000FD
:104740001F000000FFFF0000FFFF00001F0000002F
:104750001F0000001F0000001F0000001F000000DD
:104760001F0000001F0000001F0000001F000000CD
:104770001F0000001F0000001F0000001F000000BD
:104780001F0000001F0000001F0000001F000000AD
:104790001F0000001F0000001F0000001F0000009D
:1047A0001F0000001F0000001F0000001F0000008D
:1047B0001F0000001F0000001F0000001F0000007D
:1047C0001F0000001F0000001F0000001F0000006D
:1047D0001F0000001F0000001F0000001F0000005D
:1047E000FFFF0000FFFF0000FFFF00001F000000B0
:1047F0001F0000001F0000001F0000001F0000003D
:104800001F0000001F0000001F0000001F0000002C
:104810001F0000001F0000001F0000001F0000001C
:104820001F0000001F0000001F0000001F0000000C
:104830001F0000001F0000001F0000001F000000FC
:104840001F0000001F0000001F0000001F000000EC
:104850001F0000001F0000001F0000001F000000DC
:104860001F0000001F0000001F0000001F000000CC
:104870001F0000001F0000001F000000FFFF0000DD
:10488000FFFF0000FFFF0000FFFF00001F0000000F
:104890001F0000001F0000001F0000001F0000009C
:1048A0001F0000001F0000001F0000001F0000008C
:1048B0001F0000001F0000001F0000001F0000007C
:1048C0001F0000001F0000001F0000001F0000006C
:1048D0001F0000001F0000001F0000001F0000005C
:1048E0001F0000001F0000001F0000001F0000004C
:1048F0001F0000001F0000001F0000001F0000003C
:104900001F0000001F0000001F0000001F0000002B
:104910001F0000001F000000FFFF0000FFFF00005D
:10492000FFFF0000FFFF0000FFFF00001F0000006E
:104930001F0000001F0000001F0000001F000000FB
:104940001F0000001F0000001F0000001F000000EB
:104950001F0000001F0000001F0000001F000000DB
:104960001F0000001F0000001F0000001F000000CB
:104970001F0000001F0000001F0000001F000000BB
:104980001F0000001F0000001F0000001F000000AB
:104990001F0000001F0000001F0000001F0000009B
:1049A0001F0000001F0000001F0000001F0000008B
:1049B0001F000000FFFF0000FFFF0000FFFF0000DE
:1049C000FFFF0000FFFF0000FFFF00001F000000CE
:1049D0001F0000001F0000001F0000001F0000005B
:1049E0001F0000001F0000001F0000001F0000004B
:1049F0001F0000001F0000001F0000001F0000003B
:104A00001F0000001F0000001F0000001F0000002A
:104A10001F0000001F0000001F0000001F0000001A
:104A20001F0000001F0000001F0000001F0000000A
:104A30001F0000001F0000001F0000001F000000FA
:104A40001F0000001F0000001F0000001F000000EA
:104A5000FFFF0000FFFF0000FFFF0000FFFF00005E
:104A6000FFFF0000FFFF0000FFFF0000FFFF00004E
:104A7000FFFF0000FFFF0000FFFF0000FFFF00003E
:104A8000FFFF0000FFFF0000FFFF0000FFFF00002E
:104A9000FFFF0000FFFF0000FFFF0000FFFF00001E
:104AA000FFFF0000FFFF0000FFFF0000FFFF00000E
:104AB000FFFF0000FFFF0000FFFF0000FFFF0000FE
:104AC000FFFF0000FFFF0000FFFF00001F000000CD
:104AD0001F0000001F0000001F0000001F0000005A
:104AE0001F0000001F0000001F000000FFFF00006B
:104AF000FFFF0000FFFF0000FFFF0000FFFF0000BE
:104B0000FFFF0000FFFF0000FFFF0000FFFF0000AD
:104B1000FFFF0000FFFF0000FFFF0000FFFF00009D
:104B2000FFFF0000FFFF0000FFFF0000FFFF00008D
:104B3000FFFF0000FFFF0000FFFF0000FFFF00007D
:104B4000FFFF0000FFFF0000FFFF0000FFFF00006D
:104B5000FFFF0000FFFF0000FFFF0000FFFF00005D
:104B6000FFFF0000FFFF0000FFFF00001F0000002C
:104B70001F0000001F0000001F0000001F000000B9
:104B80001F0000001F000000FFFF0000FFFF0000EB
:104B9000FFFF0000FFFF0000FFFF0000FFFF00001D
:104BA000FFFF0000FFFF0000FFFF0000FFFF00000D
:104BB000FFFF0000FFFF0000FFFF0000FFFF0000FD
:104BC000FFFF0000FFFF0000FFFF0000FFFF0000ED
:104BD000FFFF0000FFFF0000FFFF0000FFFF0000DD
:104BE000FFFF0000FFFF0000FFFF0000FFFF0000CD
:104BF000FFFF0000FFFF0000FFFF0000FFFF0000BD
:104C0000FFFF0000FFFF0000FFFF00001F0000008B
:104C10001F0000001F0000001F0000001F00000018
:104C20001F000000FFFF0000FFFF0000FFFF00006B
:104C3000FFFF0000FFFF0000FFFF0000FFFF00007C
:104C4000FFFF0000FFFF0000FFFF0000FFFF00006C
:104C5000FFFF0000FFFF0000FFFF0000FFFF00005C
:104C6000FFFF0000FFFF0000FFFF0000FFFF00004C
:104C7000FFFF0000FFFF0000FFFF0000FFFF00003C
:104C8000FFFF0000FFFF0000FFFF0000FFFF00002C
:104C9000FFFF0000FFFF0000FFFF0000FFFF00001C
:104CA000FFFF0000FFFF0000FFFF00001F000000EB
:104CB0001F0000001F0000001F0000001F00000078
:104CC000FFFF0000FFFF0000FFFF0000FFFF0000EC
:104CD000FFFF0000FFFF0000FFFF0000FFFF0000DC
:104CE000FFFF0000FFFF0000FFFF0000FFFF0000CC
:104CF000FFFF0000FFFF0000FFFF0000FFFF0000BC
:104D0000FFFF0000FFFF0000FFFF0000FFFF0000AB
:104D1000FFFF0000FFFF0000FFFF0000FFFF00009B
:104D2000FFFF0000FFFF0000FFFF0000FFFF00008B
:104D3000FFFF0000FFFF0000FFFF0000FFFF00007B
:104D4000FFFF0000FFFF0000FFFF00001F0000004A
:104D50001F0000001F0000001F000000FFFF0000F8
:104D6000FFFF0000FFFF0000FFFF0000FFFF00004B
:104D7000FFFF0000FFFF0000FFFF0000FFFF00003B
:104D8000FFFF0000FFFF0000FFFF0000FFFF00002B
:104D9000FFFF0000FFFF0000FFFF0000FFFF00001B
:104DA000FFFF0000FFFF0000FFFF0000FFFF00000B
:104DB000FFFF0000FFFF0000FFFF0000FFFF0000FB
:104DC000FFFF0000FFFF0000FFFF0000FFFF0000EB
:104DD000FFFF0000FFFF0000FFFF0000FFFF0000DB
:104DE000FFFF0000FFFF0000FFFF00001F000000AA
:104DF0001F0000001F000000FFFF0000FFFF000079
:104E0000FFFF0000FFFF0000FFFF0000FFFF0000AA
:104E1000FFFF0000FFFF0000FFFF0000FFFF00009A
:104E2000FFFF0000FFFF0000FFFF0000FFFF00008A
:104E3000FFFF0000FFFF0000FFFF0000FFFF00007A
:104E4000FFFF0000FFFF0000FFFF0000FFFF00006A
:104E5000FFFF0000FFFF0000FFFF0000FFFF00005A
:104E6000FFFF0000FFFF0000FFFF0000FFFF00004A
:104E7000FFFF0000FFFF0000FFFF0000FFFF00003A
:104E8000FFFF0000FFFF0000FFFF00001F00000009
:104E90001F000000FFFF0000FFFF0000FFFF0000F9
:104EA000FFFF0000FFFF0000FFFF0000FFFF00000A
:104EB000FFFF0000FFFF0000FFFF0000FFFF0000FA
:104EC000FFFF0000FFFF0000FFFF0000FFFF0000EA
:104ED000FFFF0000FFFF0000FFFF0000FFFF0000DA
:104EE000FFFF0000FFFF0000FFFF0000FFFF0000CA
:104EF000FFFF0000FFFF0000FFFF0000FFFF0000BA
:104F0000FFFF0000FFFF0000FFFF0000FFFF0000A9
:104F1000FFFF0000FFFF0000FFFF0000FFFF000099
:104F2000FFFF0000FFFF0000FFFF00001F00000068
:104F3000FFFF0000FFFF0000FFFF0000FFFF000079
:104F4000FFFF0000FFFF0000FFFF0000FFFF000069
:104F5000FFFF0000FFFF0000FFFF0000FFFF000059
:104F6000FFFF0000FFFF0000FFFF0000FFFF000049
:104F7000FFFF0000FFFF0000FFFF0000FFFF000039
:104F8000FFFF0000FFFF0000FFFF0000FFFF000029
:104F9000FFFF0000FFFF0000FFFF0000FFFF000019
:104FA000FFFF0000FFFF0000FFFF0000FFFF000009
:104FB000FFFF0000FFFF0000FFFF0000FFFF0000F9
:104FC000FFFF0000FFFF0000FFFF0000FFFF0000E9
:104FD000FFFF0000FFFF0000FFFF0000FFFF0000D9
:104FE000FFFF0000FFFF0000FFFF0000FFFF0000C9
:104FF000FFFF0000FFFF0000FFFF0000FFFF0000B9
:10500000FFFF0000FFFF0000FFFF0000FFFF0000A8
:10501000FFFF0000FFFF0000FFFF0000FFFF000098
:10502000FFFF0000FFFF0000FFFF0000FFFF000088
:10503000FFFF0000FFFF0000FFFF0000FFFF000078
:10504000FFFF0000FFFF0000FFFF0000FFFF000068
:10505000FFFF0000FFFF0000FFFF0000FFFF000058
:10506000FFFF0000FFFF0000FFFF0000FFFF000048
:10507000FFFF0000FFFF0000FFFF0000FFFF000038
:10508000FFFF0000FFFF0000FFFF0000FFFF000028
:10509000FFFF0000FFFF0000FFFF0000FFFF000018
:1050A000FFFF0000FFFF0000FFFF0000FFFF000008
:1050B000FFFF0000FFFF0000FFFF0000FFFF0000F8
:1050C000FFFF0000FFFF0000FFFF0000FFFF0000E8
:1050D000FFFF0000FFFF0000FFFF0000FFFF0000D8
:1050E000FFFF0000FFFF0000FFFF0000FFFF0000C8
:1050F000FFFF0000FFFF0000FFFF0000FFFF0000B8
:10510000FFFF0000FFFF0000FFFF00001F00000086
:10511000FFFF0000FFFF0000FFFF0000FFFF000097
:10512000FFFF0000FFFF0000FFFF0000FFFF000087
:10513000FFFF0000FFFF0000FFFF0000FFFF000077
:10514000FFFF0000FFFF0000FFFF0000FFFF000067
:10515000FFFF0000FFFF0000FFFF0000FFFF000057
:10516000FFFF0000FFFF0000FFFF0000FFFF000047
:10517000FFFF0000FFFF0000FFFF0000FFFF000037
:10518000FFFF0000FFFF0000FFFF0000FFFF000027
:10519000FFFF0000FFFF0000FFFF0000FFFF000017
:1051A000FFFF0000FFFF0000FFFF00001F000000E6
:1051B0001F000000FFFF0000FFFF0000FFFF0000D6
:1051C000FFFF0000FFFF0000FFFF0000FFFF0000E7
:1051D000FFFF0000FFFF0000FFFF0000FFFF0000D7
:1051E000FFFF0000FFFF0000FFFF0000FFFF0000C7
:1051F000FFFF0000FFFF0000FFFF0000FFFF0000B7
:10520000FFFF0000FFFF0000FFFF0000FFFF0000A6
:10521000FFFF0000FFFF0000FFFF0000FFFF000096
:10522000FFFF0000FFFF0000FFFF0000FFFF000086
:10523000FFFF0000FFFF0000FFFF0000FFFF000076
:10524000FFFF0000FFFF0000FFFF00001F00000045
:105250001F0000001F000000FFFF0000FFFF000014
:10526000FFFF0000FFFF0000FFFF0000FFFF000046
:10527000FFFF0000FFFF0000FFFF0000FFFF000036
:10528000FFFF0000FFFF0000FFFF0000FFFF000026
:10529000FFFF0000FFFF0000FFFF0000FFFF000016
:1052A000FFFF0000FFFF0000FFFF0000FFFF000006
:1052B000FFFF0000FFFF0000FFFF0000FFFF0000F6
:1052C000FFFF0000FFFF0000FFFF0000FFFF0000E6
:1052D000FFFF0000FFFF0000FFFF0000FFFF0000D6
:1052E000FFFF0000FFFF0000FFFF00001F000000A5
:1052F0001F0000001F0000001F000000FFFF000053
:10530000FFFF0000FFFF0000FFFF0000FFFF0000A5
:10531000FFFF0000FFFF0000FFFF0000FFFF000095
:10532000FFFF0000FFFF0000FFFF0000FFFF000085
:10533000FFFF0000FFFF0000FFFF0000FFFF000075
:10534000FFFF0000FFFF0000FFFF0000FFFF000065
:10535000FFFF0000FFFF0000FFFF0000FFFF000055
:10536000FFFF0000FFFF0000FFFF0000FFFF000045
:10537000FFFF0000FFFF0000FFFF0000FFFF000035
:10538000FFFF0000FFFF0000FFFF00001F00000004
:105390001F0000001F0000001F0000001F00000091
:1053A000FFFF0000FFFF0000FFFF0000FFFF000005
:1053B000FFFF0000FFFF0000FFFF0000FFFF0000F5
:1053C000FFFF0000FFFF0000FFFF0000FFFF0000E5
:1053D000FFFF0000FFFF0000FFFF0000FFFF0000D5
:1053E000FFFF0000FFFF0000FFFF0000FFFF0000C5
:1053F000FFFF0000FFFF0000FFFF0000FFFF0000B5
:10540000FFFF0000FFFF0000FFFF0000FFFF0000A4
:10541000FFFF0000FFFF0000FFFF0000FFFF000094
:10542000FFFF0000FFFF0000FFFF00001F00000063
:105430001F0000001F0000001F0000001F000000F0
:105440001F000000FFFF0000FFFF0000FFFF000043
:10545000FFFF0000FFFF0000FFFF0000FFFF000054
:10546000FFFF0000FFFF0000FFFF0000FFFF000044
:10547000FFFF0000FFFF0000FFFF0000FFFF000034
:10548000FFFF0000FFFF0000FFFF0000FFFF000024
:10549000FFFF0000FFFF0000FFFF0000FFFF000014
:1054A000FFFF0000FFFF0000FFFF0000FFFF000004
:1054B000FFFF0000FFFF0000FFFF0000FFFF0000F4
:1054C000FFFF0000FFFF0000FFFF00001F000000C3
:1054D0001F0000001F0000001F0000001F00000050
:1054E0001F0000001F000000FFFF0000FFFF000082
:1054F000FFFF0000FFFF0000FFFF0000FFFF0000B4
:10550000FFFF0000FFFF0000FFFF0000FFFF0000A3
:10551000FFFF0000FFFF0000FFFF0000FFFF000093
:10552000FFFF0000FFFF0000FFFF0000FFFF000083
:10553000FFFF0000FFFF0000FFFF0000FFFF000073
:10554000FFFF0000FFFF0000FFFF0000FFFF000063
:10555000FFFF0000FFFF0000FFFF0000FFFF000053
:10556000FFFF0000FFFF0000FFFF00001F00000022
:105570001F0000001F0000001F0000001F000000AF
:105580001F0000001F0000001F000000FFFF0000C0
:10559000FFFF0000FFFF0000FFFF0000FFFF000013
:1055A000FFFF0000FFFF0000FFFF0000FFFF000003
:1055B000FFFF0000FFFF0000FFFF0000FFFF0000F3
:1055C000FFFF0000FFFF0000FFFF0000FFFF0000E3
:1055D000FFFF0000FFFF0000FFFF0000FFFF0000D3
:1055E000FFFF0000FFFF0000FFFF0000FFFF0000C3
:1055F000FFFF0000FFFF0000FFFF0000FFFF0000B3
:10560000FFFF0000FFFF0000FFFF00001F00000081
:105610001F0000001F0000001F0000001F0000000E
:105620001F0000001F0000001F0000001F000000FE
:10563000FFFF0000FFFF0000FFFF0000FFFF000072
:10564000FFFF0000FFFF0000FFFF0000FFFF000062
:10565000FFFF0000FFFF0000FFFF0000FFFF000052
:10566000FFFF0000FFFF0000FFFF0000FFFF000042
:10567000FFFF0000FFFF0000FFFF0000FFFF000032
:10568000FFFF0000FFFF0000FFFF0000FFFF000022
:10569000FFFF0000FFFF0000FFFF0000FFFF000012
:1056A000FFFF0000FFFF0000FFFF00001F000000E1
:1056B0001F0000001F0000001F0000001F0000006E
:1056C0001F0000001F0000001F0000001F0000005E
:1056D0001F000000FFFF0000FFFF0000FFFF0000B1
:1056E000FFFF0000FFFF0000FFFF00001F000000A1
:1056F0001F0000001F0000001F0000001F0000002E
:105700001F0000001F0000001F0000001F0000001D
:105710001F0000001F0000001F0000001F0000000D
:105720001F0000001F0000001F0000001F000000FD
:105730001F0000001F0000001F0000001F000000ED
:105740001F0000001F0000001F0000001F000000DD
:105750001F0000001F0000001F0000001F000000CD
:105760001F0000001F0000001F0000001F000000BD
:105770001F0000001F000000FFFF0000FFFF0000EF
:10578000FFFF0000FFFF0000FFFF00001F00000000
:105790001F0000001F0000001F0000001F0000008D
:1057A0001F0000001F0000001F0000001F0000007D
:1057B0001F0000001F0000001F0000001F0000006D
:1057C0001F0000001F0000001F0000001F0000005D
:1057D0001F0000001F0000001F0000001F0000004D
:1057E0001F0000001F0000001F0000001F0000003D
:1057F0001F0000001F0000001F0000001F0000002D
:105800001F0000001F0000001F0000001F0000001C
:105810001F0000001F0000001F000000FFFF00002D
:10582000FFFF0000FFFF0000FFFF00001F0000005F
:105830001F0000001F0000001F0000001F000000EC
:105840001F0000001F0000001F0000001F000000DC
:105850001F0000001F0000001F0000001F000000CC
:105860001F0000001F0000001F0000001F000000BC
:105870001F0000001F0000001F0000001F000000AC
:105880001F0000001F0000001F0000001F0000009C
:105890001F0000001F0000001F0000001F0000008C
:1058A0001F0000001F0000001F0000001F0000007C
:1058B0001F0000001F0000001F0000001F0000006C
:1058C000FFFF0000FFFF0000FFFF00001F000000BF
:1058D0001F0000001F0000001F0000001F0000004C
:1058E0001F0000001F0000001F0000001F0000003C
:1058F0001F0000001F0000001F0000001F0000002C
:105900001F0000001F0000001F0000001F0000001B
:105910001F0000001F0000001F0000001F0000000B
:105920001F0000001F0000001F0000001F000000FB
:105930001F0000001F0000001F0000001F000000EB
:105940001F0000001F0000001F0000001F000000DB
:105950001F0000001F0000001F0000001F000000CB
:105960001F000000FFFF0000FFFF00001F000000FD
:105970001F0000001F0000001F0000001F000000AB
:105980001F0000001F0000001F0000001F0000009B
:105990001F0000001F0000001F0000001F0000008B
:1059A0001F0000001F0000001F0000001F0000007B
:1059B0001F0000001F0000001F0000001F0000006B
:1059C0001F0000001F0000001F0000001F0000005B
:1059D0001F0000001F0000001F0000001F0000004B
:1059E0001F0000001F0000001F0000001F0000003B
:1059F0001F0000001F0000001F0000001F0000002B
:105A00001F0000001F000000FFFF00001F0000003B
:105A10001F0000001F0000001F0000001F0000000A
:105A20001F0000001F0000001F0000001F000000FA
:105A30001F0000001F0000001F0000001F000000EA
:105A40001F0000001F0000001F0000001F000000DA
:105CE0001F0000001F0000001F000000FFFF000059
:105CF000FFFF0000FFFF0000FFFF0000FFFF0000AC
:105D0000FFFF0000FFFF0000FFFF0000FFFF00009B
:105D1000FFFF0000FFFF0000FFFF0000FFFF00008B
:105D2000FFFF0000FFFF0000FFFF0000FFFF00007B
:105D3000FFFF0000FFFF0000FFFF0000FFFF00006B
:105D4000FFFF0000FFFF0000FFFF0000FFFF00005B
:105D5000FFFF0000FFFF0000FFFF0000FFFF00004B
:105D6000FFFF0000FFFF0000FFFF0000FFFF00003B
:105D7000FFFF0000FFFF0000FFFF0000FFFF00002B
:105D8000FFFF0000FFFF0000FFFF0000FFFF00001B
:105D9000FFFF00001F0000001F0000001F000000A8
:105DA0001F0000001F0000001F0000001F00000077
:105DB0001F0000001F0000001F0000001F00000067
:105DC0001F0000001F0000001F0000001F00000057
:105DD0001F000000FFFF0000FFFF0000FFFF0000AA
:105DE000FFFF00001F0000001F0000001F00000058
:105DF0001F0000001F0000001F0000001F00000027
:105E00001F0000001F0000001F0000001F00000016
:105E10001F0000001F0000001F0000001F00000006
:105E20001F000000FFFF0000FFFF0000FFFF000059
:105E3000FFFF00001F0000001F0000001F00000007
:105E40001F0000001F0000001F0000001F000000D6
:105E50001F0000001F0000001F0000001F000000C6
:105E60001F0000001F0000001F0000001F000000B6
:105E70001F000000FFFF0000FFFF0000FFFF000009
:105E8000FFFF00001F0000001F0000001F000000B7
:105E90001F0000001F0000001F0000001F00000086
:105EA0001F0000001F0000001F0000001F00000076
:105EB0001F0000001F0000001F0000001F00000066
:105EC0001F000000FFFF0000FFFF0000FFFF0000B9
:105ED000FFFF00001F0000001F0000001F00000067
:105EE0001F0000001F0000001F0000001F00000036
:105EF0001F0000001F0000001F0000001F00000026
:105F00001F0000001F0000001F0000001F00000015
:105F10001F000000FFFF0000FFFF0000FFFF000068
:105F2000FFFF00001F0000001F0000001F00000016
:105F30001F0000001F0000001F0000001F000000E5
:105F40001F0000001F0000001F0000001F000000D5
:105F50001F0000001F0000001F0000001F000000C5
:105F60001F000000FFFF0000FFFF0000FFFF000018
:105F7000FFFF00001F0000001F0000001F000000C6
:105F80001F0000001F0000001F0000001F00000095
:105F90001F0000001F0000001F0000001F00000085
:105FA0001F0000001F0000001F0000001F00000075
:105FB0001F000000FFFF0000FFFF0000FFFF0000C8
:105FC000FFFF00001F0000001F0000001F00000076
:105FD0001F0000001F0000001F0000001F00000045
:105FE0001F0000001F0000001F0000001F00000035
:105FF0001F0000001F0000001F0000001F00000025
:106000001F000000FFFF0000FFFF0000FFFF000077
:10601000FFFF00001F0000001F0000001F00000025
:106020001F0000001F0000001F0000001F000000F4
:106030001F0000001F0000001F0000001F000000E4
:106040001F0000001F0000001F0000001F000000D4
:106050001F000000FFFF0000FFFF0000FFFF000027
:10606000FFFF00001F0000001F0000001F000000D5
:106070001F0000001F0000001F0000001F000000A4
:106080001F0000001F0000001F0000001F00000094
