:020000040800F2
:10000000A04F002099010008FB2A0008E919000808
:10001000F92A0008F1030008313700080000000049
:1000200000000000000000000000000001010008C6
:10003000D90400080000000045010008D93100087B
:10004000B3010008B3010008B3010008B3010008C0
:10005000B3010008B3010008B3010008B3010008B0
:10006000B3010008B3010008B3010008B3010008A0
:10007000B3010008B3010008B3010008B301000890
:10008000B3010008B3010008B3010008B301000880
:10009000B3010008B3010008B3010008B301000870
:1000A000B3010008B3010008B3010008B301000860
:1000B000B3010008B3010008B3010008B301000850
:1000C000B3010008B3010008B3010008B301000840
:1000D000892B000825370008B3010008B301000888
:1000E000B3010008B3010008B3010008DFF80CD029
:1000F00000F06CF900480047B1370008A04F00201D
:10010000224B19680868B0E8F00F80F30988BFF344
:100110006F8F4FF0000080F311884EF00D0E704786
:100120000000000006480068006880F3088862B696
:1001300061B6BFF34F8FBFF36F8F00DF00BF00BF0B
:1001400008ED00E0EFF30980BFF36F8F0F4B1A68E3
:1001500020E9F00F106008B54FF0500080F31188CF
:10016000BFF34F8FBFF36F8F03F002FF4FF000001C
:1001700080F31188BDE8084019680868B0E8F00FFE
:1001800080F30988BFF36F8F704700BFBC00002069
:10019000EFF3058070470000064880470648004797
:1001A000FEE7FEE7FEE7FEE7FEE7FEE7FEE7FEE727
:1001B000FEE7FEE74F320008ED00000840EA0103C9
:1001C0009B0703D009E008C9121F08C0042AFAD20D
:1001D00003E011F8013B00F8013B521EF9D27047D1
:1001E000D2B201E000F8012B491EFBD27047002279
:1001F000F6E710B513460A4604461946FFF7F0FF26
:10020000204610BDF0B480EA0102D40F4200B2EBE8
:10021000410F02D20246084611464A0042D0C30DA1
:10022000DDB2C1F3C752AD1A202D35DAC1F3160184
:1002300041F4000204B15242C5F1200602FA06F16F
:100240002A411044B3EBD05F23D0C4B1012DA0EB01
:10025000C35009DCF0BC4FF0004202EAC352DBB2EB
:1002600000F5000000F083B8400000F1807000EB62
:10027000C350A0F1807040EAD170490009E04908FC
:1002800041EAC071A0EBC35000F50000400800EB4C
:10029000C350F0BC00F062B86142012202EB4101A0
:1002A000001BF6E7F0BC704781F00041AAE780F040
:1002B0000040A7E780EA010210B502F000434000C9
:1002C00022D04A001FD0010E01EB1261C0F356008C
:1002D000C2F3560240F4000042F40002A0FB0220E8
:1002E00000047F39140400D0401C50EA124001D4AD
:1002F0004000491EC2B20C0604EBD010401C40085E
:10030000802A02D003E0002010BD20F00100002967
:1003100000DA0020184310BDC10F80EAE0700844E5
:10032000CA079623002100F022B896230022114626
:1003300000F01DB820F00040C10DC0F3160040F4DD
:1003400000007F2901DA00207047962903DCC1F103
:100350009601C84070479639884070470029A8BF69
:100360007047401C490008BF20F00100704710B4DE
:10037000B0FA80FC00FA0CF050EA010404BF10BC93
:10038000704749B1CCF1200421FA04F411FA0CF1C0
:1003900018BF012121430843A3EB0C01CB1D4FEAF9
:1003A00000614FEA102042BF002010BC704700EBF4
:1003B000C35010440029A4BF10BC7047401C490022
:1003C00008BF20F0010010BC70470000064C074D2C
:1003D00006E0E06840F0010394E807009847103415
:1003E000AC42F6D3FFF786FEFCCD00081CCE000819
:1003F000FEE70000224A0B38232840D2DFE800F055
:100400001A181614123F3F3F3F3F2422201E1C3F64
:100410003F3F3F3F2E2C2A28263F3F3F3F3F383665
:100420003432300017A124E017A122E017A120E008
:1004300017A11EE017A11CE017A11AE017A118E0F0
:1004400017A116E017A114E017A112E017A110E000
:1004500017A10EE017A10CE017A10AE017A108E010
:1004600017A106E017A104E017A102E017A100E020
:1004700017A1642311620222164801F05BBA70478B
:1004800034000020313500003134000031330000E9
:1004900031320000313100003235000032340000CA
:1004A00032330000323200003231000033350000B8
:1004B00033340000333300003332000033310000A6
:1004C000343500003434000034330000343200008E
:1004D00034310000183C0020704700002DE9FC4733
:1004E000032002F00DF9E620009000244FF49B73E6
:1004F0001E220A214FF6E07001F0B8FD02215CA037
:10050000CDE900010A2100234FF6FF72084601F0F1
:1005100045FE5B4F0A264FF48C794FF496784D4692
:1005200057F824203146284601F00AFE641C05F1E4
:1005300001054545F4D3761C142EF0D3142337223D
:100540002321504800F0AAF81423372255214D48A2
:1005500000F0A4F81423372287214A4800F09EF8BF
:1005600014233722B921474800F098F81423372282
:10057000EB21444800F092F840F21D141423372276
:100580002146414800F08AF81423692223213D487E
:1005900000F084F81423692255213A4800F07EF8CF
:1005A000142369228721374800F078F81423692240
:1005B000B921344800F072F814236922EB21314844
:1005C00000F06CF8142369222146304800F066F8E8
:1005D00014239B2223212B4800F060F814239B2234
:1005E0005521284800F05AF814239B2287212548DA
:1005F00000F054F814239B22B921224800F04EF851
:1006000014239B22EB211F4800F048F814239B225F
:1006100021461F4800F042F81423CD222321194817
:1006200000F03CF81423CD225521164800F036F88E
:100630001423CD228721134800F030F81423CD2253
:10064000B921104800F02AF81423CD22EB210D48DF
:1006500000F024F81423CD2221460E4800F01EF8A5
:1006600002B00122BDE8F04710210B4800F09DB90F
:100670004E686120786520747520646F6E67210074
:10068000C44B0008E4800008E44E0008245500082C
:10069000645B0008A4610008000801402DE9F84FE0
:1006A00082461F4616460C460120009000251F2357
:1006B0003A463146204601F051FBA4F10909A6F162
:1006C000090706F10B080B340EE04E4609E000BFA7
:1006D0005AF825203946304601F032FD6D1C06F1EE
:1006E0000106A642F4D37F1C4745EED3BDE8F88F40
:1006F00072B6FEE710B590F821100024022903D04D
:100700000421816301243DE001680A6822F00E02A1
:100710000A6001680A6822F001020A601A4A016848
:10072000914201D1012121E0174A1432914201D1B5
:1007300010211BE0144A2832914201D1891515E09D
:10074000114A3C32914201D189140FE00E4A5032D5
:10075000914202D14FF4803108E00B4A6432914259
:1007600002D14FF4801101E04FF08071064A083A3F
:100770005160012180F82110002180F82010416B88
:1007800001B18847204610BD0800024070B50446FC
:1007900000F010F90546601C02D0044800780444BB
:1007A00000F008F9401BA042FAD370BDAC00002055
:1007B0002DE9F84FDFF8B891002409F1040A0AF195
:1007C000040B23460F270BF1040EC9E00125A540B9
:1007D0002A40AA427DD1674ED1F804C0ACEB06088E
:1007E000B44532D014DCBCF1030F3AD009DCBCF1C3
:1007F000000F2AD0BCF1010F1CD0BCF1020F31D187
:100800001DE0BCF1110F17D0BCF1120F2AD119E075
:10081000B8F5881F19D006DCB8F5803F15D0B8F5BB
:10082000801F1FD111E0B8F5001F0ED0B8F5041FCE
:1008300018D10AE0CB6815E0CB681B1D12E0CB682D
:1008400008330FE0CB680C330CE08B682BB1012B25
:100850004FF0080303D0456104E0042302E0056182
:1008600000E00023FF2A01D8064601E000F104065B
:100870004FEA840501D9A5F12005D6F8008007FAD2
:1008800005FC28EA0C0803FA05F548EA0508C6F84D
:1008900000804D68ED0062D5374DAE6946F0010627
:1008A000AE61AD6924F0030605F001050095334DF6
:1008B00006EB050CDCF80850A607360F07FA06F819
:1008C00025EA0805DFF8B880404503D14FF000085D
:1008D00017E044E0DFF8AC80404502D14FF001085A
:1008E0000FE0DFF8A480404502D14FF0020808E095
:1008F000DFF89880404502D14FF0030801E04FF047
:10090000040808FA06F848EA0508CCF808804D689B
:10091000D9F80060ED034D4601D5164300E096433B
:100920002E604D68DAF80060AD03554601D51643D8
:1009300000E096432E604D68DBF80060ED025D46F6
:1009400001D5164300E096432E604D68DEF8006046
:10095000AD02754601D5164300E096432E60641C37
:100960000D682A46E5407FF431AFBDE8F88F0000FE
:10097000000401400000111000100240000001407E
:1009800000080140000C014000100140001401402B
:100990008068084000D001207047C26821EA020345
:1009A0000A4043EA0241016170470AB101617047A0
:1009B0000904FBE70148806870470000AC00002094
:1009C000024881680278114481607047AC000020C1
:1009D000074810B5016841F010010160032000F0E4
:1009E0007BF80F2000F006F800F024F8002010BD7E
:1009F0000020024070B50D4D04464FF47A712878FE
:100A0000B1FBF0F00A490968B1FBF0F000F0CCFD51
:100A100048B9102C07D200222146501E00F03CF8A5
:100A200000206C6070BD012070BD0000AC00002093
:100A3000B80000200F4808B5816941F001018161CB
:100A4000816901F001010091C16941F08051C161EA
:100A5000C069002200F0805000900F21901E00F02D
:100A60001BF80548416821F0E06141F000714160E8
:100A700008BD00000010024000000140002809DB12
:100A800000F01F02012191404009800000F1E020A8
:100A9000C0F8001170470000F0B40E4B1B680C4604
:100AA000C3F30223C3F10705042D00D90425191D42
:100AB000072901D2002300E0DB1E012606FA05F11A
:100AC000491E214099409E40761E16403143F0BC9D
:100AD00002F02FBE0CED00E0064900F007020868A6
:100AE0004FF6FF03184040EA0220034A1043086013
:100AF000704700000CED00E00000FA052DE9F0471A
:100B00000F46050061D0434E306800F00700B84240
:100B100009D2306820F0070038433060306800F0B8
:100B20000700B84251D128683B4C810712D54007D5
:100B300003D5606840F4E06060602878000703D562
:100B4000606840F4605060606068A96820F0F00060
:100B5000084360602878C00728D06868012810D052
:100B60002168022810D0890700292EDA616821F057
:100B7000030101436160FFF71DFF804641F28839A0
:100B80000DE021688903EFE78901EDE7FFF712FF28
:100B9000A0EB0801494502D90320BDE8F087606851
:100BA000696800F00C00B0EB810FEFD1306800F005
:100BB0000700B8420BD9306820F007003843306096
:100BC000306800F00700B84201D00120E5E728783E
:100BD000400705D56068E96820F4E060084360607C
:100BE0002878000706D56068296920F4605040EA3B
:100BF000C100606000F038F86168084AC1F3031171
:100C0000515CC8400649086006480068FFF7F2FEDC
:100C10000020C2E70020024000100240C0CD0008C2
:100C2000B8000020B0000020044805490068496869
:100C3000044AC1F30221515CC8407047B80000204B
:100C400000100240D0CD00080448054900684968FA
:100C5000044AC1F3C221515CC8407047B80000206B
:100C600000100240D0CD000812A185B00FC98DE858
:100C70000F0014A0144A006804905168134801F052
:100C80000C03042B10D0082B0ED1C1F38343C903EE
:100C90001DF803000AD5516804AAC1F34041515C14
:100CA0000A4A5043B0FBF1F005B070470849484389
:100CB000FAE7000002030405060708090A0B0C0DF9
:100CC0000E0F1010010200000010024000127A0006
:100CD00000093D002DE9F84F040070D02078C04D88
:100CE000C00749D06868C0F38100012807D0686850
:100CF000C0F38100022809D16868C00306D52868BE
:100D0000800339D560680028E7D035E06068B0F529
:100D1000803F0BD010B1B0F5A02F11D0286820F47F
:100D200080302860286820F4802002E0286840F4A1
:100D300080302860606890B1FFF73CFE06460AE00C
:100D4000286840F480202860F0E700BFFFF732FEFB
:100D5000801B642873D828688003F7D50CE0FFF760
:100D600029FE064605E000BFFFF724FE801B64282D
:100D7000F0D828688003F7D420789A4E80074FF087
:100D800001094FF0000839D5686810F00C0F07D042
:100D90006868C0F38100022809D16868C00306D4DE
:100DA0002868800714D52069012808D110E020693F
:100DB000B0B1C6F80090FFF7FDFD074605E00AE177
:100DC000FFF7F8FDC01B0228C4D828688007F7D5B4
:100DD0002868616920F0F80040EAC10028600DE051
:100DE000C6F80080FFF7E6FD074604E0FFF7E2FDE6
:100DF000C01B022823D828688007F7D42078000772
:100E00002CD57948A169D9B1C0F80090FFF7D2FD7F
:100E1000074604E0FFF7CEFDC01B02280FD8686A22
:100E20008007F7D571484FF4FA510068B0FBF1F034
:100E3000009000BF0098411E0091FAD20EE080E0C1
:100E4000C0F80080FFF7B6FD074604E0FFF7B2FDEB
:100E5000C01B022875D8686A8007F7D4207840073D
:100E600060D5E8690027C00008D4E86940F08050E8
:100E7000E861E869012700F0805000905C48016853
:100E8000C90513D40168834641F480710160FFF7FE
:100E900091FD824606E000BFFFF78CFDA0EB0A0043
:100EA00064284ED8DBF80000C005F5D5E0680128BD
:100EB0000AD008B1052813D0286A20F00100286262
:100EC000286A20F0040002E0286A40F0010028624D
:100ED000E06841F2883B98B1FFF76CFD82460BE079
:100EE000286A40F004002862EEE700BFFFF762FDC9
:100EF000A0EB0A0159455AD8286A8007F6D50CE0BC
:100F0000FFF758FD824605E0FFF754FDA0EB0A010C
:100F100059454CD8286A8007F6D41FB1E86920F0FB
:100F20008050E861E06988B36968C1F381010229F2
:100F300044D00228C6F8608004D0FFF73BFD044689
:100F400038E034E0FFF736FD074604E0FFF732FDF6
:100F5000C01B02282BD828688001F7D4206AB0F57E
:100F6000803F05D16868A16820F4003008436860BC
:100F7000D4E908010843696821F4741108436860E2
:100F8000C6F86090FFF716FD044606E025E000BFB6
:100F9000FFF710FD001B022809D828688001F7D54B
:100FA0001BE000BFFFF706FD001B022802D903204B
:100FB000BDE8F88F28688001F4D40EE00128F7D04E
:100FC0006868226A00F48031914204D1616A00F4B9
:100FD0007010884201D00120EAE70020E8E7000015
:100FE000001002400000424280044242B80000204B
:100FF000007000407047000038B504460068426841
:101000008168C9434B0606D5CB0704D1D3435B06A1
:1010100001D4216C05E08B0708D4D3431B0605D40B
:10102000616C01B02046BDE8304008478B0601D511
:101030004B0646D4D3439B0643D44B060AD494F8BC
:101040005130032B3ED0636D43F004036365C368E6
:1010500083680093890609D4616D41F001016165DF
:1010600081680091016821F040010160606D0028F5
:1010700027D02068416821F0E0014160012084F818
:101080005100900722D02068416821F0030141609F
:10109000104DE06C40B14563E06CFFF72BFB18B1DD
:1010A000606D40F040006065A06C002809D0456389
:1010B000A06CFFF71FFB002803D0606D40F04000DC
:1010C000606538BDC1688068009038BD2046FFF774
:1010D00091FF38BD952B000870B5040009D0606AF7
:1010E000002540B125616561A56294F8510040B1C9
:1010F0000CE0012070BD6068B0F5827FF4D0E5613E
:10110000F2E784F85050204600F040F8022084F8BE
:1011100051002068016821F040010160A088218908
:1011200000F4827001F404410843A18901F40061D4
:101130000843217C01F002010843217D01F00101F7
:101140000843218B01F400710843217F01F038012D
:10115000084394F8201001F080010843218D01F428
:101160000051084321680860A069042101EA104089
:10117000216848602068C16921F40061C16165652A
:10118000012084F85100002070BD000030B585B00A
:10119000002400940194029403942C4D03682C487D
:1011A00002210322AB4222D1836943F4805383613D
:1011B000836903F480530493836943F004038361D8
:1011C0008069244D00F004000490A020CDE90001C6
:1011D000039269462846FFF7EBFA4020CDE9000468
:1011E000694628460294FFF7E3FA05B030BD1A4D70
:1011F000AB42FAD1C36943F48043C361C36903F4CA
:1012000080430493836943F0080383618069134D2D
:1012100000F0080004904FF42040CDE90001039253
:1012200069462846FFF7C4FA4FF48040CDE9000430
:10123000694628460294FFF7BBFA002205212420C4
:10124000FFF72AFC2420FFF719FCCEE7003001400D
:10125000001002400008014000380040000C01402E
:101260002DE9F84F044690F8500000271D46164619
:10127000894601280DD04FF0010B84F850B0FFF7DC
:1012800099FB804694F85100BA46012804D0022701
:1012900093E00220BDE8F88FB9F1000F73D0002E63
:1012A00071D0032084F85100C4F854A0C4F83090E1
:1012B000A686E686C4F838A0A4F83CA0A4F83EA010
:1012C000C4F844A0C4F840A0A068B0F5004F09D10C
:1012D0002068016821F0400101602068016841F444
:1012E0008041016020680168490603D4016841F02B
:1012F00040010160E068B0F5006F606803D030B372
:10130000012E24D041E008B1012E1CD1206B2168B0
:101310000088C86006E020688168890709D5216BCC
:101320000988C160206B801C2063E08E401EE0862F
:1013300009E0FFF73FFBA0EB0800A84202D3681CBE
:1013400001D031E07DB3E08E0028E4D120E0206BB5
:1013500021680078087306E020688168890709D54C
:10136000216B09780173206B401C2063E08E401EC6
:10137000E0860AE0FFF71EFBA0EB0800A84203D3BB
:10138000681C02D010E017E06DB1E08E0028E3D1B8
:1013900042462946204601F005FC08B12020606540
:1013A000A06818B106E0FFE7032706E02068C168DF
:1013B00080680090606D00B1012784F851B084F816
:1013C00050A0384666E72DE9F84F044690F85000E3
:1013D00000270A9E1D4692468B464FF001090128C0
:1013E0000ED0012084F85000FFF7E4FA804694F80C
:1013F0005100616801280CD0B1F5827F07D102E06D
:101400000220BDE8F88FA16809B9042801D002279D
:10141000C2E0BBF1000F27D0BAF1000F24D01DB3FA
:1014200094F85100042802D0052084F851000020CF
:101430006065C4F838A0E587A587C4F830B0E586B4
:10144000A5862064606420680168490603D40168A9
:1014500041F040010160E068B0F5006F606805D0C0
:10146000E8B3012D46D07FE0012795E008B1012DBA
:1014700039D1206B21680088C860206B801C2063F4
:10148000E08E401EE0862EE02068816889070FD537
:10149000E18E69B1B9F1010F0AD1216B0988C160F0
:1014A000206B801C2063E08E401EE0864FF0000918
:1014B00020688168C9070CD0E18F51B1C068A16B69
:1014C0000880A06B801CA063E08F401EE0874FF077
:1014D0000109FFF76FFAA0EB0800B04200E009E055
:1014E00001D3701C50D1E08E0028CDD1E08F0028B0
:1014F000CAD13FE0206B216800780873206B401C44
:101500002063E08E401EE0862EE020688168890717
:101510000FD5E18E69B1B9F1010F0AD1216B0978BC
:101520000173206B401C2063E08E401EE0864FF06C
:10153000000920688168C9070CD0E18F51B1C068EB
:10154000A16B0870A06B401CA063E08F401EE08779
:101550004FF00109FFF72EFAA0EB0800B04202D3CA
:10156000701C01D010E07EB1E08E0028CDD1E08F5C
:101570000028CAD142463146204601F013FB28B16B
:1015800001272020606507E0032705E0A06818B95F
:101590002068C16880680090012084F85100002014
:1015A00084F8500038462CE710B5401EB0F1807F1B
:1015B00001D3012010BD4FF0E02460610F216017BE
:1015C00002F0B7F80020A06107202061002010BDC4
:1015D0007047000070B5026804461068D16853690E
:1015E00010F00F0F52D003F0010501F490762E4356
:1015F0005FD0C20705D0CA0503D5E26B42F00102F5
:10160000E263420705D5DA0703D0E26B42F002023B
:10161000E263820705D5DA0703D0E26B42F00402E9
:10162000E263020707D501F020022A4303D0E26BF0
:1016300042F00802E263E26B002A33D0800604D550
:10164000880602D5204601F099FF20684069E16BC9
:10165000C0F38010090700D428B3204601F080FFB2
:101660002068416949061AD5416921F0400141616C
:10167000606BA0B12D494163606BFFF73BF8002818
:1016800010D0606B416BBDE870400847830610D5F1
:101690008B060ED52046BDE8704001F06FBF204696
:1016A000FFF796FF70BD2046FFF792FF0020E06332
:1016B00070BD03062BD50B0629D594F839002128D7
:1016C000F6D1A068B0F5805F01D12069B0B1206A81
:1016D000411C2162216800784860E08C401E0004B3
:1016E000000CE084E4D12068C16821F08001C16071
:1016F0002068C16841F04001C16070BD206A008867
:10170000C0F308005060206A801C2062E5E74006B4
:10171000F3D54806F1D5D168204621F04001D160CB
:10172000202184F8391000F05EF970BD51350008B1
:1017300070B5040004D094F83900002510B106E01B
:10174000012070BD84F83850204600F023F8242092
:1017500084F839002068C16821F40051C160204636
:1017600001F052FF2068016921F490410161206875
:10177000416921F02A0141612068C16841F40051AA
:10178000C160E563202084F8390084F83A00002025
:1017900070BD000030B585B000240094019402941F
:1017A00003940068184988422CD11848816941F493
:1017B00080418161816901F480410491816941F036
:1017C000040181618069124D00F0040004904FF41F
:1017D0000070009002200190032003906946284683
:1017E000FEF7E6FF2815CDE9000469462846029475
:1017F000FEF7DEFF002205212520FFF74DF9252009
:10180000FFF73CF905B030BD003801400010024040
:101810000008014090F83A30202B22D1F9B1F2B102
:1018200090F83830012B1CD081628285C28500215E
:10183000C163222280F83A2080F838100168CA6813
:1018400042F48072CA6001684A6942F001024A614A
:101850000068C16841F02001C1600020704701208C
:10186000704702207047000010B543F6C8122E4999
:101870002E48FFF7CFFF2C482D490278022A03D0CB
:101880007AB1032A17D022E04278022A1FD1827847
:10189000022A1CD1C278022A19D10079022808D064
:1018A00015E042789AB982788AB9C2787AB9007913
:1018B00068B9C86010BD4278032A08D18278032A2B
:1018C00005D1C278032A02D10279032A01D001206E
:1018D000EFE742790A6182794A63C2790A63027A40
:1018E000CA62427A8A62827A4A61C27A4A64027B16
:1018F0000A64427BCA63827B8A63C27B8A61027C00
:101900004A65427C0A65827CCA64C27C8A64027D24
:10191000CA61427D4A66827D0A66C27DCA65007ED2
:1019200088650320C5E700009E010020183C0020C8
:10193000340000202DE9F843044690F839001F4692
:1019400016460D4620284CD1C5B1BEB194F83800DA
:10195000012846D0012084F838004FF00008C4F870
:101960003C80212084F83900FFF724F8A6848146C2
:10197000E684A068B0F5805F03D004E00120BDE8F4
:10198000F883206928B12E465FF0000584F838807E
:101990000EE00026FAE78021204601F091FEA0B972
:1019A000AEB116F8010B21684860E08C401EE0845F
:1019B000E08C4B464FF0000200970028EBD14FF02F
:1019C0004001204601F07CFE30B10320D7E735F816
:1019D000020BC0F30800E6E7202084F8390000205D
:1019E000CDE70220CBE77047FEE7000010B5974C2B
:1019F0004FF014034FF03702A06A4FF0EB010F28AD
:101A00007DD09348FEF74AFEE06A4FF014030E289B
:101A10004FF037024FF0B90172D08D48FEF73EFE0D
:101A2000206B4FF014030D284FF0370269D088481F
:101A3000B92100BFFEF732FE606B4FF014030C2893
:101A40004FF037024FF055017DD08148FEF726FE5A
:101A500020694FF014030B284FF0370274D07C48F4
:101A6000552100BFFEF71AFEA06B4FF01403192892
:101A70004FF069024FF0EB0167D07548FEF70EFE9C
:101A8000E06B4FF0140318284FF069024FF0B901D2
:101A90007DD06F48FEF702FE206C4FF0140317282C
:101AA0004FF069024FF0870172D06948FEF7F6FDEA
:101AB000606C4FF0140316284FF069024FF0550187
:101AC00067D06348FEF7EAFD60694FF014031528FC
:101AD0004FF069024FF023017DD05D48FEF7DEFD37
:101AE000A06C4FF0140323284FF09B024FF0EB0142
:101AF00072D05748FEF7D2FDE06C222802E078E071
:101B00007AE07BE04FF014034FF09B024FF0B901F5
:101B100071D04F48FEF7C2FD206D4FF0140321280D
:101B20004FF09B024FF0870170D04948FEF7B6FD99
:101B3000606D4FF0140320284FF09B024FF05501C9
:101B400076D0434802E05CE05DE060E0FEF7A6FD91
:101B5000A0694FF014031F284FF09B024FF02301A0
:101B600068D03B48FEF79AFDA06D4FF014032D2876
:101B70004FF0CD024FF0EB015ED03548FEF78EFD01
:101B8000E06D4FF014032C284FF0CD0202E040E04E
:101B900041E042E04FF0B90150D02D48FEF77EFD04
:101BA000206E4FF014032B284FF0CD024FF0870129
:101BB00046D02748FEF772FD606E4FF014032A28C6
:101BC0004FF0CD024FF055013CD02148FEF766FDA5
:101BD000E069292801E022E024E04FF014034FF0EF
:101BE000CD024FF023012FD01948BDE81040FEF779
:101BF00055BD184806E717E016480FE78721154836
:101C000018E7144822E7232112482BE70EE0114879
:101C100034E710483EE70F4848E70E4852E70D48C2
:101C20005CE705E00B4865E70A4873E709487DE78C
:101C3000084887E7074895E706489FE70548ADE766
:101C40000448B7E70348C1E70248CEE73400002064
:101C50002CC70008ECC000082DE9F05F9246DDE9D2
:101C60000A723B4C9946CAF30728C3F30726012A98
:101C700029D0022A5CD101F11003C21D00F030FD11
:101C8000002208212046FEF790FE2C2000F044FCA4
:101C9000012208212046FEF788FE2E48002500EB91
:101CA000071B0BEB05070024A7F58057C4F10701BC
:101CB00097F8000EC840C0073CD0404600F02CFC0E
:101CC0000AF0FF003BE001F10803421D00F008FDAF
:101CD000002208212046FEF768FE2C2000F01CFCA4
:101CE000012208212046FEF760FE1B48002400EB7D
:101CF000C70B0BEB04070225A7F58057C5F10701B9
:101D000097F8000FC840C00705D0404600F004FC1B
:101D10000AF0FF0004E0304600F0FEFB09F0FF008F
:101D200000F0FAFB6D1C082DE8DB641C082CE0DBDE
:101D3000BDE8F09F304600F0EFFB09F0FF0000F037
:101D4000EBFB641C082CB1DB6D1C102DA9DBEFE74D
:101D500000080140D0450008F84200082DE9F04F86
:101D600085B08B46012103915100144682464942B9
:101D7000C2F101090E980025ABEB0402029100921A
:101D800000281E460BEB04010AEB0407AAEB04082B
:101D90001A46504622D000F0D3F9324650460099F8
:101DA00000F0CEF95B463A464046194600F098FCF2
:101DB000964F002208213846FEF7F7FD2C2000F050
:101DC000ABFB012208213846FEF7EFFD012101EBB4
:101DD0004400A846C6F30727009062E000F0B0F97F
:101DE00032465046009900F0ABF938463246594623
:101DF00000F0A6F940463246594642E0B9F1000FDC
:101E000004DB0298801C8144641E029003986D1CC0
:101E1000801C814403900BEB04010AEB05000F4684
:101E20008046324600F08CF9AAEB0500394632466E
:101E3000009000F085F9ABEB040740463246394686
:101E400000F07EF939463246009800F079F90BEB44
:101E500005010AEB04000F463246009000F070F9CD
:101E6000AAEB040039468046324600F069F9ABEB34
:101E700005010F463246009800F062F939464046A7
:101E8000324600F05DF9A542B8DB05B0BDE8F08F41
:101E9000384600F041FBF0B200F03EFB009808F13C
:101EA00001084045F4D8ACE0B9F1000F04DB02981A
:101EB000801C8144641E029003986D1C801C814428
:101EC00003900AEB0502AAEB0500CDE900020BEB3B
:101ED00004010B4600F004FCDFF8308100220821E9
:101EE0004046FEF762FD2C2000F016FB012208217F
:101EF0004046FEF75AFD012000EB45004FF0000878
:101F0000049008E0384600F007FBF0B200F004FB54
:101F1000049808F101084045F4D8DDE90002ABEB74
:101F200004010B4600F0DCFBDFF8E0800022082112
:101F30004046FEF73AFD2C2000F0EEFA012208217F
:101F40004046FEF732FD002007E0384600F0E4FA94
:101F5000F0B200F0E1FA08F1010004998046414531
:101F6000F3D80AEB0402AAEB0400CDE900020BEB64
:101F700005010B4600F0B4FBDFF890800022082139
:101F80004046FEF712FD2C2000F0C6FA012208217F
:101F90004046FEF70AFD012000EB44004FF0000828
:101FA000049008E0384600F0B7FAF0B200F0B4FA56
:101FB000049808F101084045F4D8DDE90002ABEBD4
:101FC00005010B4600F08CFBDFF840800022082161
:101FD0004046FEF7EAFC2C2000F09EFA0122082180
:101FE0004046FEF7E2FC002007E0384600F094FA95
:101FF000F0B200F091FA08F10100804604984045E3
:10200000F3D8A542FFF650AF3FE7000000080140BB
:1020100070B51C461546002822DB002920DB114B39
:102020005A6890421CD29B68994219D2521E5B1E7C
:1020300000F056FB0C4E002208213046FEF7B5FC9E
:102040002C2000F069FA012208213046FEF7ADFC91
:10205000E8B200F061FAE0B2BDE8704000F05CBAAE
:1020600070BD000000000020000801402DE9F84389
:102070001E4615460F468046089C009200F017F851
:1020800033462A4619464046009400F010F83B4675
:102090002A4619464046009400F009F83346224685
:1020A00039464046009400F002F8BDE8F8832DE977
:1020B000FF5F14460E980E461D46021BA3EB060159
:1020C00000D55242002900DA49428A4208DD31B285
:1020D00026460C4619B205464FF00108084601E0B5
:1020E0004FF00008AE4205D931B22E460D4621B25E
:1020F00004460846A5EB0609011B00D549428B465C
:1021000009EBD9714F10844201D2012001E04FF058
:10211000FF30824610E0009AB8F1000F02D031463D
:10212000204601E02146304600F00AF8B7EB0B07E5
:1021300001D554444F46761CAE42ECD9BDE8FF9F12
:1021400070B51446002823DB002921DB114B5A68A7
:1021500090421DD29B6899421AD2521E5B1E00F01B
:10216000BFFA0D4D002208212846FEF71EFC2C2048
:1021700000F0D2F9012208212846FEF716FCC4F32C
:10218000072000F0C9F9E0B2BDE8704000F0C4B922
:1021900070BD000000000020000801402DE9FC4750
:1021A0000446DDE90A652148994692460F46012D0D
:1021B0001CD0022D1ED101210170804632E000BFEB
:1021C000D8F8041004EBC5028A4202D9012407EBB7
:1021D000C507CDE900054B46524639462046FFF774
:1021E0003BFD04EBC504A41E761C00E0804630785D
:1021F0000028E5D1BDE8FC87D8F8041004EBC5023F
:102200008A4202D9012407EBC507CDE900054B46F8
:10221000524639462046FFF71FFD98F80000761C0D
:1022200004EBC00430780028E6D1E3E7000000208A
:1022300070B5094C05460021D4E901230846521E19
:102240005B1E00F04DFAD4E901104143A8B2BDE88D
:10225000704000F093B900000000002010B5044663
:10226000E52340F235121F210B2000F039FA044813
:10227000D0E901104143A0B2BDE8104000F07EB9A2
:102280000000002010B500F025F900F0FFF8012053
:1022900000F0FEF9CB2000F0FBF9392000F00CFA39
:1022A0002C2000F009FA002000F006FA342000F09B
:1022B00003FA022000F000FACF2000F0E9F9002034
:1022C00000F0FAF9C12000F0F7F9302000F0F4F93D
:1022D000E82000F0DDF9852000F0EEF9002000F0A4
:1022E000EBF9782000F0E8F9EA2000F0D1F90020BD
:1022F00000F0E2F9002000F0DFF9ED2000F0C8F96D
:10230000642000F0D9F9032000F0D6F9122000F083
:10231000D3F9812000F0D0F9F72000F0B9F920209E
:1023200000F0CAF9C02000F0B3F9102000F0C4F9A1
:10233000C12000F0ADF9102000F0BEF9C52000F07A
:10234000A7F93E2000F0B8F9282000F0B5F9C72021
:1023500000F09EF9862000F0AFF9362000F098F9E1
:10236000482000F0A9F93A2000F092F9552000F039
:10237000A3F9B12000F08CF9002000F09DF918209D
:1023800000F09AF9B62000F083F9082000F094F9E3
:10239000822000F091F9272000F08EF9F22000F061
:1023A00077F9002000F088F9262000F071F901206B
:1023B00000F082F9E02000F06BF90F2000F07CF9CA
:1023C000312000F079F92B2000F076F90C2000F094
:1023D00073F90E2000F070F9082000F06DF94E201E
:1023E00000F06AF9F12000F067F9372000F064F995
:1023F000072000F061F9102000F05EF9032000F0E2
:102400005BF90E2000F058F9092000F055F9002082
:1024100000F052F9E12000F03BF9002000F04CF907
:102420000E2000F049F9142000F046F9032000F0D6
:1024300043F9112000F040F9072000F03DF9312068
:1024400000F03AF9C12000F037F9482000F034F9E3
:10245000082000F031F90F2000F02EF90C2000F0D8
:102460002BF9312000F028F9362000F025F90F2053
:1024700000F022F9112000F00BF9292000F008F9F2
:10248000BDE810402C2000F017B9000010B5104C2A
:10249000002204212046FEF788FA3220FEF776F962
:1024A000012204212046FEF780FA00221021204656
:1024B000FEF77BFA3220FEF769F9012000F0E8F818
:1024C00020460122BDE810401021FEF76EBA000040
:1024D000000801400F4810B50D4901604FF48271AA
:1024E000416000218160C1604FF400720161C0E968
:1024F0000512C1610162416281620A21C162FEF777
:10250000EBFD002803D0BDE81040FEF7F1B810BD88
:10251000003001401C01002001B501231A46694624
:102520000148FEF79DFE08BD1C01002070B5124D4C
:102530000C460646002210212846FEF736FA0022F5
:1025400008212846FEF731FA3046FFF7E5FF012261
:1025500008212846FEF729FA200EFFF7DDFFC4F315
:102560000740FFF7D9FFC4F30720FFF7D5FFE0B21C
:10257000BDE87040FFF7D0BF000801402DE9F047EB
:10258000DFF808910D46060A00F0FF08002210212E
:102590004C464846FEF709FA002208212046FEF77D
:1025A00004FA2C20FFF7B8FF012208212046FEF78D
:1025B000FCF93046FFF7B0FF4046FFF7ADFF6D1E58
:1025C000C5F38F1446451DD049E010264046FFF75D
:1025D000A3FF4046FFF7A0FF4046FFF79DFF4046A0
:1025E000FFF79AFF4046FFF797FF4046FFF794FF3B
:1025F0004046FFF791FF4046FFF78EFF761E16F02C
:10260000FF06E3D1641EA4B2DFD205F03F0405E06B
:102610004046FFF781FF4046FFF77EFF641EE4B2AD
:10262000F6D22BE010273046FFF776FF4046FFF743
:1026300073FF3046FFF770FF4046FFF76DFF3046EF
:10264000FFF76AFF4046FFF767FF3046FFF764FF7A
:102650004046FFF761FF7F1E17F0FF07E3D1641EBE
:10266000A4B2DFD205F03F0405E03046FFF754FF87
:102670004046FFF751FF641EE4B2F6D24846BDE87B
:10268000F04701221021FEF790B900000008014038
:1026900070B5084C0546002208212046FEF785F952
:1026A000002210212046FEF780F92846BDE8704040
:1026B000FFF732BF0008014070B5084C0546012203
:1026C00008212046FEF771F9002210212046FEF76E
:1026D0006CF92846BDE87040FFF71EBF00080140B6
:1026E00070B50C4642EA00411D462A20FFF71EFF46
:1026F00045EA0441BDE870402B20FFF717BF0000FA
:102700002DE9F04107463620FFF7C2FF0D4CF026B9
:102710004FF4A07567B1012F0CD0022F0CD0032FFE
:1027200004D1E820FFF7C8FFC4E90156BDE8F081F5
:10273000482002E02820F5E78820FFF7BDFFC4E924
:102740000165F3E70000002010B5142000F059F8EF
:10275000800705D10321BDE81040142000F073B8B4
:1027600010BD7CB50446002529460D2000F001F976
:10277000932020702020607001A823460090022240
:1027800019460C2000F06BF8010009D1225C401CB6
:102790005540C0B20428F9D3205CA84200D00221E1
:1027A00008467CBD70B50C46054600F02AF820EAC4
:1027B00004012846BDE8704000F0DBB810B500F019
:1027C0003EF88D212A2000F0D4F83E212B2000F085
:1027D000D0F81E212D2000F0CCF800212C2000F094
:1027E000C8F87021262000F0C4F84021152000F020
:1027F000C0F83D21112000F0BCF8BDE81040FFF703
:10280000A3BF7E2101EA400040F0800000F086B9BD
:102810007CB50C46054607210D2000F0AAF825706E
:1028200001A823460090012219460C2000F017F859
:1028300018B9BDF80410102900D002207CBD0F216A
:10284000012000F096B870B50C460546FFF7D9FF99
:1028500040EA04012846BDE8704000F08AB82DE93E
:10286000FF5F00270226DDF838A015468B4681461B
:10287000B8460C2805D0B9F10E0F05D1122710204B
:1028800001E077273020804647F08001022000F0E9
:1028900070F880210420FFF785FF80210A20FFF7D0
:1028A000D2FF0021012000F064F8002406E01BF8AC
:1028B0000410092000F05DF8641CA4B2AC42F6D309
:1028C0004946012000F055F8B9F10C0F03D18021E1
:1028D0000D20FFF7B8FF4FF4FA650420FFF791FFD2
:1028E0006D1E2D0404462D0C04D0E00702D114EA1D
:1028F000080FF2D080210D20FFF754FF35B10620DC
:10290000FFF77FFF10F01B0F04D0022604B0304603
:10291000BDE8F09F00263C40E00700D00126B9F159
:102920000C0FF3D10A20FFF76CFF04460C20FFF7D1
:1029300068FF10F007004FEAC40104D008390844CA
:10294000AAF8000001E0AAF8001024B1102C04D964
:102950001024002503E00124FBE7002506E0092000
:10296000FFF74FFF039948556D1CADB2A542F6D352
:10297000CCE77E2202EA400000F0EAB82DE9F043FD
:1029800085B0002436480094019402940394816930
:1029900041F010018161816901F0100104918169A8
:1029A00041F020018161816901F020010491816978
:1029B00041F004018161816901F0040104918169A0
:1029C00041F0080181618069264F00F008004FF452
:1029D00000550490002229463846FDF7E6FFDFF84F
:1029E000888000221C214046FDF7DFFFDFF87C9045
:1029F000002241F2D0014846FDF7D7FF009502269C
:102A000001250396CDE9015469463846FDF7D0FE0D
:102A10001C200327CDE90005CDE902476946404661
:102A2000FDF7C6FE2803CDE90005CDE9024669465B
:102A30004846FDF7BDFED020CDE90005CDE90247AF
:102A400069464846FDF7B4FE3802CDE90004694600
:102A500048460294FDF7ACFE05B0BDE8F0830000E7
:102A6000001002400010014000080140000C01402D
:102A70000F4810B50D4901604FF48271416000218B
:102A80008160C1604FF400720161C0E90512082243
:102A9000C0E90721416281620A21C162FEF71CFB85
:102AA000002801D072B6FEE710BD000000300140E2
:102AB000683B00200F4810B50D4901604FF482714A
:102AC000416000218160C1604FF400720161C0E982
:102AD00005120822C0E90721416281620A21C16210
:102AE000FEF7FAFA002801D072B6FEE710BD00002A
:102AF00000380040C03B0020FEE7FEE70EB5012392
:102B00008DF804000A20009002AA01A90248FEF7ED
:102B10005AFC9DF808000EBDC03B002070B50B4E5E
:102B200004464FF48055002229463046FDF73DFF0C
:102B30002046FFF7E3FF0020FFF7E0FF04460122F5
:102B400029463046FDF731FF204670BD000C01409C
:102B50002DE9F0410B4D0F4606464FF480540022FC
:102B600021462846FDF721FF3046FFF7C7FF3846CC
:102B7000FFF7C4FF21462846BDE8F0410122FDF7DA
:102B800014BF0000000C01400148FEF735BA0000F8
:102B9000C03B002010B5406A0021C187C186FEF706
:102BA00029FA10BD38B50B46009204460022802158
:102BB00000F008F8002804D0606D40F02000606547
:102BC000032038BD2DE9F8431E4691468846044649
:102BD000089DFDF7EFFE401B351AFDF7EBFE07469B
:102BE00025480068C0F3CB30684338E0701C37D00C
:102BF000FDF7E0FEC01BA84203D215B1009860B3F8
:102C00002CE02068416821F0E00141606068B0F587
:102C1000827F0BD1A068B0F5004F02D0B0F5806F75
:102C200004D12068016821F040010160A06AB0F57C
:102C3000005F09D12068016821F40051016020681B
:102C4000016841F400510160012084F85100002026
:102C500084F850000320BDE8F8830025401E009052
:102C60002068816838EA010004D000214945BDD1BF
:102C70000020F0E70121F9E7B8000020DFF8088420
:102C800040F6282A40F61C4BD8F80C00444602288F
:102C90007ED1FE4D002069688847287C000677D5E4
:102CA000D02000F059FBE080902000F055FB2081FF
:102CB000E18840F2BB25A1F2BD21A9420DD25045C9
:102CC0000BD9584509D214233722EB21F048FDF7E0
:102CD000E5FC0F206062FDF78DFBE088A0F2BD20CF
:102CE000A84211D22089B0F5FA6F0DD940F6C4116F
:102CF000884209D214233722B921E548FDF7CEFCDA
:102D00000E206062FDF776FBE088A0F2BD20A842AD
:102D100011D22089B0F5AF6F0DD940F26C718842A5
:102D200009D2142337228721D948FDF7B7FC0D209B
:102D30006062FDF75FFBE088A0F2BD20A84211D2DF
:102D40002089B0F5487F0DD940F21451884209D24C
:102D5000142337225521CE48FDF7A0FC0C206062D9
:102D6000FDF748FBE088A0F2BD20A8420FD22089E1
:102D7000C8280CD9B0F52F7F09D21423372223217C
:102D8000C348FDF78BFC0B206062FDF733FB00E0CE
:102D900049E1E088A0F2DD50A8420ED220895045DA
:102DA0000BD9584509D214236922EB21B848FDF705
:102DB00075FC19206062FDF71DFBE088A0F2DD5074
:102DC000A84211D22089B0F5FA6F0DD940F6C4118E
:102DD000884209D214236922B921AD48FDF75EFC6F
:102DE00018206062FDF706FBE088A0F2DD50A842E3
:102DF00011D22089B0F5AF6F0DD940F26C718842C5
:102E000009D2142369228721A148FDF747FC172026
:102E10006062FDF7EFFAE088A0F2DD50A84211D21F
:102E20002089B0F5487F0DD940F21451884209D26B
:102E30001423692255219648FDF730FC1620606264
:102E4000FDF7D8FAE088A0F2DD50A8420FD2208921
:102E5000C8280CD9B0F52F7F09D214236922232169
:102E60008B48FDF71BFC15206062FDF7C3FAE08874
:102E7000A0F6FD00A8420ED2208950450BD9584536
:102E800009D214239B22EB218148FDF707FC232064
:102E90006062FDF7AFFAE088A0F6FD00A84211D20B
:102EA0002089B0F5FA6F0DD940F6C411884209D2D5
:102EB00014239B22B9217648FDF7F0FB22206062A3
:102EC000FDF798FAE088A0F6FD00A84211D220890B
:102ED000B0F5AF6F0DD940F26C71884209D214235E
:102EE0009B2287216A48FDF7D9FB21206062FDF70C
:102EF00081FAE088A0F6FD00A84211D22089B0F541
:102F0000487F0DD940F21451884209D214239B22E4
:102F100055215F48FDF7C2FB20206062FDF76AFA89
:102F2000E088A0F6FD00A8420FD22089C8280CD95D
:102F3000B0F52F7F09D214239B2223215448FDF79B
:102F4000ADFB1F206062FDF755FAE088A0F61D403A
:102F5000A8420ED2208950450BD9584509D21423D6
:102F6000CD22EB214A48FDF799FB2D206062FDF749
:102F700041FAE088A0F61D40A84211D22089B0F5A0
:102F8000FA6F0DD940F6C411884209D21423CD221C
:102F9000B9213F48FDF782FB2C206062FDF72AFA39
:102FA000E088A0F61D40A84211D22089B0F5AF6F8D
:102FB0000DD940F26C71884209D21423CD228721A9
:102FC0003348FDF76BFB2B206062FDF713FAE088B6
:102FD000A0F61D40A84211D22089B0F5487F0DD936
:102FE00040F21451884209D21423CD225521284899
:102FF000FDF754FB2A206062FDF7FCF9E088A0F69B
:103000001D40A8420FD22089C8280CD9B0F52F7FC7
:1030100009D21423CD2223211D48FDF73FFB29208F
:103020006062FDF7E7F9E068A046012827D100209B
:10303000FFF714F9174F00240025AC2004F14D09C7
:1030400004FB00F606EB4501C8197A5C4378494653
:1030500005F17500FEF7DCFF6D1CADB2562DF1D306
:10306000641CA4B2562CE7D34FF47A7000F002FC33
:103070000020FFF7F3F8FDF731FAFEF7B7FCD8F8B8
:103080000C0003280AD107E03400002010000020C3
:10309000ECC000089E010020FEF7A8FC012000F013
:1030A000E9FBF1E543F6C81245494648FEF7B2FB95
:1030B000012251034448FDF778FC414D434C1A3D31
:1030C0004FF001094FF0000804F168063C49262042
:1030D0001A39FFF79DFB00285CD139481A38FFF7F1
:1030E00040FBE8BB84F8018084F803800820A070CE
:1030F00084F80490CC4684F8008040462178725CC5
:103100006B5C9A4200D00120491CC9B2217004298D
:10311000F4D3607020B32746BCF1000F3AD087F893
:10312000038087F8048087F800803878295C315460
:10313000401CC0B238700428F7D3DFF884A087F8A9
:103140000080AAF10A0AAAF1200B3878285C00F066
:103150000FFBB8789AF800300BF80030401C00E004
:1031600018E0C0B29AF801100BF80010401CB870BB
:103170003878401CC0B238700428E6D31049642364
:1031800010222A390F48FEF7D5FB4FF400510E48A4
:10319000FDF703FCE078C83010F0FF00E0700BD1C1
:1031A00084F80490414684F8008020783154401C13
:1031B000C0B220700428F8D3642000F05BFB85E7E0
:1031C0009E010020183C0020001001403400002027
:1031D000642000F04FFBFBE710B5FDF7F1FB00F0BA
:1031E000B7FF012803D0BDE8104000F043BF10BD79
:1031F00030B58FB028216846FCF7F9FF14210AA8E2
:10320000FCF7F5FF01210804CDE900100024029429
:1032100002250491CDE907504FF4E010099068466B
:10322000FDF758FD08B172B6FEE70F20CDE90A059B
:103230004FF48060CDE90C4002210AA80E94FDF7FE
:103240005DFC002801D072B6FEE70FB030BD7047BC
:103250002DE9FF4100244FF44070CDE900040F4FE9
:10326000022569463846CDE90245FDF7A1FA10204E
:103270000126CDE9000669463846CDE90245FDF74D
:1032800097FAC020CDE9000669460548CDE9024518
:10329000FDF78EFA04B00120BDE8F081000C01407A
:1032A000001001402DE9F04100252A4E07462C462A
:1032B0002A4610213046FDF778FB00228021304657
:1032C000FDF773FB002240213046FDF76EFB3846C8
:1032D00000F01AF90620FDF759FA002210213046B5
:1032E000FDF763FB0120FDF751FA01221021304662
:1032F000FDF75BFB0120FDF749FA00221021304663
:10330000FDF753FB4FF6FF774FF4807807EA44044C
:10331000002210213046FDF748FB0120FDF736FA68
:10332000012210213046FDF740FB41463046FDF7B3
:103330002FFB08B1641CA4B26D1CEDB2102DE5D3B7
:103340002409012240213046FDF72FFB2046BDE82D
:10335000F0810000000C01407CB5064600256C465B
:103360003046FFF79FFF24F815006D1CADB2032D0A
:10337000F6D30020411C0B460BE000BF34F81020B0
:1033800034F81150AA4203D924F8105024F811201F
:10339000491C89B20329F1D398B20228EAD300204C
:1033A0005FF0010134F81120491C104489B280B249
:1033B0000229F7D37CBD00002DE9F041074C0646F9
:1033C0000D462078FFF7C8FF07466078FFF7C4FF77
:1033D000378028800120BDE8F08100000C0000202B
:1033E0007FB50C460546694602A8FFF7E5FF0028B1
:1033F0002FD001A903A8FFF7DFFF002829D0BDF8CF
:103400000C30BDF80820934203D803F13200824209
:1034100005D39A421FD802F1320083421BD2BDF875
:103420000410BDF80000814203D801F13206B04219
:1034300004D388420FD8323081420CD2D0184008D1
:103440002880BDF80000BDF8041008444008208022
:10345000012004B070BD0020FBE7000070B50546F8
:103460004FF400712648FDF793FA264C30B1207CCA
:1034700001063AD520F0800020743DE0214800F19B
:103480000E010C3015B1FFF7ABFF24E0FFF7A8FFEA
:1034900008B3B4F91C00FCF73FFF0546A089FCF710
:1034A00044FF6169FCF706FF2946FCF7ABFEFCF719
:1034B00041FFA081B4F91E00FCF72EFF0546E0890C
:1034C000FCF733FFA169FCF7F5FE2946FCF79AFEED
:1034D000FCF730FFE081207C00060DD4C020207472
:1034E000A0892081E089608106E000202081608140
:1034F0004FF6FF70A081E081207C00F0800070BD5D
:10350000000C01401000002070B5104E054600244C
:10351000280601D5012200E0002280213046FDF777
:1035200044FA6806050E002210213046FDF73DFAE8
:103530000120FDF72BF9012210213046FDF735FA65
:10354000641CE4B2082CE3D370BD0000000C014001
:1035500010B5406A0021C185C184FEF739F810BD5D
:103560000168CA6822F49072CA6001684A6922F050
:1035700001024A61202180F83A10704710B590F896
:103580003A10222901D0022010BD82684FF48053E6
:103590009A4201D1016921B1816A9A421BD04AB194
:1035A0000AE00268816A5268C2F308020A80816AEE
:1035B000891C08E0026972B10268526802F07F0259
:1035C0000A70816A491C8162C18D491E0904090C77
:1035D000C18503D016E002685268F1E70168CA6845
:1035E00022F02002CA600168CA6822F48072CA60B0
:1035F00001684A6922F001024A61202180F83A10EC
:10360000FEF732F9002010BD70B50446006801696C
:10361000E26821F44051114301612169A068084327
:10362000616908432168CA6841F20C639A43024306
:10363000CA6020684169A26921F440711143416167
:103640001E492068884202D1FDF7FEFA01E0FDF72D
:10365000EBFA00EBC00101EB00126068642180000E
:10366000B2FBF0F3B3FBF1F36FF018067343B2FB58
:10367000F0F5B2FBF0F605EB8305322303EB0515FD
:10368000B5FBF1F5B6FBF1F605F0F00505EB061517
:10369000B2FBF0F6B2FBF0F0B0FBF1F06FF0180205
:1036A000504306EB800003EB0010B0FBF1F0216803
:1036B00000F00F002844886070BD00000038014011
:1036C0002DE9F041984617460E460446069D1DE03A
:1036D000681C1BD02DB1FDF76DF9A0EB0800A842C6
:1036E00014D92068C16821F4D071C1602068416993
:1036F00021F001014161202084F8390084F83A006A
:10370000002084F838000320BDE8F08120680068BC
:1037100036EA000004D00020B842D9D00020F3E7F8
:103720000120F9E70148FDF755BF0000183C0020D3
:10373000FEE70907090E002804DB00F1E02080F80D
:103740000014704700F00F0000F1E02080F8141D15
:10375000704702E008C8121F08C1002AFAD170475A
:103760007047002001E001C1121F002AFBD1704701
:103770001FB50AA410281ECC8DE81E000B4A69460E
:1037800002D23023137005E001EB101300F00F009C
:103790001B781370085C50701FBD0000303132334D
:1037A0003435363738394142434445469401002088
:1037B00096B0FDF70DF9FFF71BFDFFF7DFF8FFF7F8
:1037C00057F9FFF777F9254823490C2201604FF498
:1037D000E131416000218160C160C0E90412816172
:1037E000C161FDF7A5FF08B172B6FEE7FEF74AFD1D
:1037F0000120FEF785FF0020FEF71AFDFEF7DEFF31
:103800000020FEF72BFDFCF769FEFFF721FD1C22CF
:1038100013496846FCF7D2FC0021684600F036F8F0
:10382000104C0F491C22E0661C3107A8FCF7C6FCAF
:10383000002107A800F02AF8094920671C22383126
:103840000EA8FCF7BBFC00210EA800F01FF8606773
:1038500000F017F8FEE7000000380140183C002097
:103860006CCD00083400002001460020842900D0DF
:10387000C81C704710B500B9012000F015FB0020EE
:1038800010BD10B500F036FB002010BD7FB50D4611
:1038900004464169B0F9080081B1A16971B1FFF72F
:1038A000E3FFD4E905128DE80700D4E900102B46A8
:1038B000226900F022FC039004B070BDFFF7D4FF32
:1038C00003A9CDE90001208A2B4682B2D4E9001079
:1038D00000F0E6FB012801D00020EDE70398EBE7BC
:1038E0002DE9F041184C0F46054666692068001D19
:1038F00000F016FA38B9206890F82C1001208840A2
:10390000A1698143A161681C07D137B12168BDE875
:10391000F0410E48091D00F047BA20683544B54211
:103920004560216805D2A068BDE8F041091D00F09E
:1039300023BA6068091D00F01FFA206B854200D28F
:103940002563BDE8F0810000BC000020883F002016
:103950002DE9F041054600F033FA2E4C2069401C59
:10396000206120682C4F10B1E06940B32DE0256044
:103970002069012829D1002606EB860007EB80008C
:1039800000F0ECF9761C072EF6D323488C3000F0BB
:10399000E5F92148A03000F0E1F91F48B43000F00B
:1039A000DDF91D48C83000F0D9F91B48DC3000F0C3
:1039B000D5F919488C3060601430A06005E02068AB
:1039C000E96AC06A884200D82560E06A401CE0626B
:1039D000E96A0120A26988401043A06101EB8100DF
:1039E00007EB8000291D00F0DFF900F009FAE0691B
:1039F00000280CD02068E96AC06A884207D20749CB
:103A00004FF080500860BFF34F8FBFF36F8FBDE85A
:103A1000F0810000BC000020AC3E002004ED00E07E
:103A200010B5044690F8510058B101280CD0022876
:103A30000FD0502080F31188BFF34F8FBFF36F8FEB
:103A4000FEE7206B00F0F0F92046BDE8104000F0E2
:103A5000EBB910BD10484FF44061420706D0C01DBD
:103A60000D4920F00700411AC1F540610B4A0023BF
:103A70000144C2E900030839103A21F0070111603E
:103A80004B600B600B1AC0E9001393604FF00040CD
:103A90005360D060704700009C3F00200801002068
:103AA000144E154CA6F1C8074FF08058DFF84C9023
:103AB00012E000BF00F084F9F068C568281D00F02E
:103AC0002FF92069401E2061E068401EE06000F090
:103AD00097F92846FFF7A4FFE0680028EAD1386884
:103AE0000128F9D9C9F80080BFF34F8FBFF36F8F5A
:103AF000F2E70000743F0020BC00002004ED00E06D
:103B00002DE9F0479A46DDE9098481466FF0030309
:103B1000206B03EB82021044089D20F0070670071B
:103B200007D0502080F31188BFF34F8FBFF36F8F02
:103B3000FEE723180A5C83F834200A5C12B1401CAB
:103B40001028F6D3002784F84370072D00D30625EC
:103B5000E562C4E91157201D00F00BF904F11800CB
:103B600000F007F92461C5F107006462A061E76411
:103B700084F8507052464946304600F0BFF8206045
:103B8000B8F1000F01D0C8F80040BDE8F087000090
:103B900030B5114900E011460A688242FBD34B68F8
:103BA0005C18844203D14068184448600846436862
:103BB0001C18944209D1084C103C2468A24209D038
:103BC00052681A4442600A6812680260814200D05A
:103BD000086030BD0460F9E708010020064841682C
:103BE000096829B14168C968C968496801637047B3
:103BF0004FF0FF31FAE70000BC00002008484068A1
:103C0000401C4FF0500080F3118804D0BFF34F8F59
:103C1000BFF36F8FFEE7BFF34F8FBFF36F8FFEE7EA
:103C2000100100202DE9F0410546002700F098F929
:103C3000314E306808B9FFF70DFFF06805424BD1EF
:103C4000C5B3083568070ED005F00700C0F10800BD
:103C50000544680707D0502080F31188BFF34F8FC9
:103C6000BFF36F8FFEE72DB37068854234D82248CA
:103C7000103001460C6801E020460C466168A942FC
:103C800002D221680029F7D131688C4224D007681C
:103C90002168016060680837411B10290FD960193D
:103CA000420708D0502080F31188BFF34F8FBFF335
:103CB0006F8FFEE710E041606560FFF769FF6168A4
:103CC0007068401A7060B268904200D2B060F068CC
:103CD00001430020C4E9000100F0ACFA780707D0E6
:103CE000502080F31188BFF34F8FBFF36F8FFEE733
:103CF0003846BDE8F0810000F800002010B5031F31
:103D00004FF080741C601B1F21F001011960191F06
:103D1000024B0B60143940380A6010BDFD3B0008AF
:103D2000D0E9013201699A60D0E901235A604A68FA
:103D3000824201D182684A60002202610868401E06
:103D40000860086870470000034B036003F15400EB
:103D50000860802010607047583C002000F1080186
:103D60004FF0FF32C0E90112C16001610021016022
:103D7000704700210161704730B50B685A1C02D0B2
:103D800000F1080202E0026904E022465468256856
:103D90009D42FAD953684B6099608A60516008610E
:103DA0000168491C016030BD42684A6093688B60BD
:103DB00093685960916008610168491C016070470F
:103DC000502080F31188BFF34F8FBFF36F8F0A49E4
:103DD0004868401C486001280CD10848006810F071
:103DE000FF0F07D0502080F31188BFF34F8FBFF330
:103DF0006F8FFEE7704700001001002004ED00E027
:103E00000849486828B1401E486001D180F31188F4
:103E10007047502080F31188BFF34F8FBFF36F8F2F
:103E2000FEE700001001002070B5002827D0144DD7
:103E3000A0F108046168E868014207D1502080F3CE
:103E40001188BFF34F8FBFF36F8FFEE722683AB13F
:103E5000502080F31188BFF34F8FBFF36F8FFEE7C1
:103E60008143616000F07CF86068696808446860BC
:103E70002046FFF78DFEBDE8704000F0DBB970BD55
:103E8000F80000204FF0E020002101618161054928
:103E90004FF47A720968B1FBF2F1491E41610721C2
:103EA00001617047B800002010B5020014D00F481F
:103EB000806B38B1502080F31188BFF34F8FBFF370
:103EC0006F8FFEE700F04CF800211046FFF708FD69
:103ED00000F0B0F9002807D105494FF08050086084
:103EE000BFF34F8FBFF36F8F10BD0000BC000020E9
:103EF00004ED00E010B586B00024039405AA04A9DF
:103F000003A80494FFF720FFDDE903010094CDE945
:103F1000011000230EA11048059A00F0EEF80F4999
:103F20000028486311D0502080F31188BFF34F8FD1
:103F3000BFF36F8F4FF0FF3008630120C8614C6101
:103F400006B0BDE8104000F041B806B010BD00005A
:103F500049444C4500000000A13A0008BC00002084
:103F60000248816B491C816370470000BC0000203F
:103F70001448816B11B101214162704700214162F7
:103F80008169B1FA81F1C1F11F0101EB81020E4992
:103F900051F822306BB101EB820101F108034A684C
:103FA00052684A609A4201D152684A60D168016001
:103FB0007047502080F31188BFF34F8FBFF36F8F8E
:103FC000FEE70000BC000020AC3E00201CB52649E6
:103FD00008780190FF20087008788DF800009DF89F
:103FE00000009DF8002000F0F000904207D0502023
:103FF00080F31188BFF34F8FBFF36F8FFEE79DF8FB
:1040000000001A4B00F0500018700720986005E07F
:104010009DF8002052008DF80020401E9DF80020E1
:104020001206F5D49860032807D0502080F3118839
:10403000BFF34F8FBFF36F8FFEE74FF44070986070
:10404000019808700A48016841F470010160016834
:1040500041F070410160FFF715FF00205860FCF748
:1040600061F800201CBD000000E400E01001002009
:1040700020ED00E010B5502080F31188BFF34F8F82
:10408000BFF36F8F00F072F818B104494FF0805001
:104090000860002080F3118810BD000004ED00E0EE
:1040A0002DE9FF5F8346DDE90E87994616468A466D
:1040B0009000FFF7B7FD05001CD05420FFF7B2FDBC
:1040C000040014D00020256384F85100CDE902409B
:1040D000CDE900874B46324651465846FFF710FD62
:1040E0002046FFF735FC012004B0BDE8F09F2846CC
:1040F000FFF79AFE4FF0FF30F6E7F0B585B0DDE947
:104100000B640A9DA6B1DCB15427009726630226F2
:1041100084F85160002604AFCDE90246CDE900578E
:10412000FFF7EEFC2046FFF713FC049805B0F0BD46
:10413000502080F31188BFF34F8FBFF36F8FFEE7DE
:10414000502080F31188BFF34F8FBFF36F8FFEE7CE
:104150000548C16919B1806B18B100207047012072
:104160007047022070470000BC0000202DE9F0419C
:104170002E4C0027A06B40B1206A401C2062606A70
:1041800000B101273846BDE8F0816669761C66619A
:1041900013D16068006838B1502080F31188BFF3F4
:1041A0004F8FBFF36F8FFEE76068A1686160A0600A
:1041B000A06A401CA062FFF711FD206BDFF8708041
:1041C000864209D36068006880B16068C068C568CD
:1041D000686886420DD220632068C06A00EB8001C7
:1041E00058F821000128CAD90127C8E74FF0FF304D
:1041F000F1E7281DFFF794FDA86A18B105F1180032
:10420000FFF78EFDE86A0121A26981401143A16197
:1042100000EB800108EB8100291DFFF7C5FDE86A6E
:104220002168C96A8842CDD30127CBE7BC000020B2
:10423000AC3E00202DE9F0472C4D00242746A86B0A
:1042400038B1FFF7BDFDA86B401EA863A86B40B155
:1042500046E0502080F31188BFF34F8FBFF36F8F7C
:10426000FEE72969224E0120D1B3A6F1B4098046A8
:104270003068E8B1F068C46804F11800FFF750FD39
:10428000201DFFF74DFDE06AAA6908FA00F111430D
:10429000A96100EB800109EB8100211DFFF784FD7E
:1042A000E06A2968C96A8842E2D3C5F82480DFE75A
:1042B0000CB1FFF793FC2C6A44B14646FFF756FF5A
:1042C00000B16E62641EF9D100202862686A38B1BC
:1042D0000849012738070860BFF34F8FBFF36F8F7E
:1042E000FFF78EFD3846BDE8F0870000BC000020D7
:1042F000603F002004ED00E000000000000000002E
:1043000004040404000400000A0A0A00000000007B
:104310000A0A1F0A1F0A0A00040F140E051E0400D1
:1043200018190204081303000C12140814120D00CB
:104330000C04080000000000020408080804020041
:1043400008040202020408000004150E150400000F
:104350000004041F04040000000000000C04080016
:104360000000001F0000000000000000000C0C0016
:1043700000010204081000000E11131519110E009F
:10438000040C040404040E000E11010204081F00B2
:104390001F02040201110E0002060A121F0202008F
:1043A0001F101E0101110E000608101E11110E0033
:1043B0001F010204080808000E11110E11110E0051
:1043C0000E11110F01020C00000102040810000080
:1043D000000C0C000C040800020408100804020081
:1043E00000001F001F000000080402010204080072
:1043F0000E110102040004000E11010D15150E002E
:104400000E1111111F1111001E11111E11111E008C
:104410000E11101010110E001C12111111121C009F
:104420001F10101E10101F001F10101E1010100063
:104430000E11101711110E001111111F1111110081
:104440000E04040404040E000702020202120C000F
:1044500011121418141211001010101010101F0057
:10446000111B15151111110011111915131111003E
:104470000E11111111110E001E11111E101010003D
:104480000E11111115120D001E11111E1412110022
:104490000F10100E01011E001F0404040404040088
:1044A0001111111111110E0011111111110A040035
:1044B0001111111115150E0011110A040A11110024
:1044C0001111110A040404001F01020408101F0046
:1044D0000E08080808080E00110A1F041F04040033
:1044E0000E02020202020E00040A11000000000087
:1044F0000000000000001F00080400000000000091
:1045000000000E010F110F0010101E1111111E00DE
:1045100000000E1010110E0001010D1311110F00FB
:1045200000000E111F100E000609081C08080800E4
:10453000000F11110F010E001010161911111100AA
:1045400004000C0404040E000200060202120C0017
:1045500010101214181412001808080808081C007B
:1045600000001A1515111100000016191111110083
:1045700000000E1111110E0000001E111E1010007F
:1045800000000F110F01010000001619101010009B
:1045900000000E100E011E0008081C080809060085
:1045A0000000111111130D0000001111110A040077
:1045B0000000111111150A000000110A040A11006F
:1045C000000011110F010E0000001F0204081F005F
:1045D00000000000000000000000000000000000DB
:1045E000000000183C3C3C1818001818000000009F
:1045F0000000006666660000000000000000000089
:1046000000000036367F3636367F36360000000032
:104610000018183C666030180C06663C181800003C
:10462000000070D8DA760C18306E5B1B0E000000AC
:10463000000000386C6C38606F66663B000000005C
:104640000000001818180000000000000000000022
:104650000000000C1818303030303018180C0000F2
:104660000000003018180C0C0C0C0C18183000004E
:104670000000000000361C7F1C3600000000000017
:10468000000000000018187E18180000000000004C
:10469000000000000000000000001C1C0C180000BE
:1046A000000000000000007E00000000000000008C
:1046B000000000000000000000001C1C00000000C2
:1046C00000000006060C0C18183030606000000076
:1046D0000000001E333737333B3B331E0000000021
:1046E0000000000C1C7C0C0C0C0C0C0C00000000DE
:1046F0000000003C6666060C1830607E000000007A
:104700000000003C6666061C0666663C0000000071
:104710000000003030363636667F060600000000A6
:104720000000007E6060607C06060C7800000000DF
:104730000000001C18307C666666663C00000000C5
:104740000000007E060C0C1818303030000000000D
:104750000000003C6666763C6E66663C0000000029
:104760000000003C666666663E0C183800000000DB
:1047700000000000001C1C0000001C1C00000000C9
:1047800000000000001C1C0000001C1C0C18000095
:10479000000000060C18306030180C060000000005
:1047A0000000000000007E007E000000000000000D
:1047B0000000006030180C060C183060000000008B
:1047C0000000003C66660C18180018180000000075
:1047D0000000007EC3C3CFDBDBCFC07F0000000042
:1047E000000000183C6666667E6666660000000093
:1047F0000000007C6666667C6666667C00000000E1
:104800000000003C666660606066663C0000000078
:10481000000000786C66666666666C7800000000D2
:104820000000007E6060607C6060607E00000000D0
:104830000000007E6060607C6060606000000000DE
:104840000000003C666660606E66663E0000000028
:10485000000000666666667E6666666600000000AA
:104860000000003C181818181818183C0000000028
:1048700000000006060606060666663C000000000C
:1048800000000066666C6C786C6C66660000000068
:1048900000000060606060606060607E000000009A
:1048A0000000006363776B6B6B6363630000000061
:1048B0000000006363737B6F676363630000000045
:1048C0000000003C666666666666663C00000000A6
:1048D0000000007C6666667C60606060000000002E
:1048E0000000003C666666666666663C0C06000074
:1048F0000000007C6666667C6C66666600000000F0
:104900000000003C666030180C06663C00000000A9
:104910000000007E18181818181818180000000059
:1049200000000066666666666666663C000000001B
:10493000000000666666666666663C180000000059
:104940000000006363636B6B6B363636000000005B
:1049500000000066663418182C66666600000000C9
:10496000000000666666663C181818180000000013
:104970000000007E06060C183060607E000000001B
:104980000000003C303030303030303030303C00CF
:104990000000006060303018180C0C0606000000A3
:1049A0000000003C0C0C0C0C0C0C0C0C0C0C3C0017
:1049B00000183C660000000000000000000000003D
:1049C0000000000000000000000000000000FF00E8
:1049D000000000181818000000000000000000008F
:1049E00000000000003C06063E66663E0000000037
:1049F00000000060607C66666666667C0000000001
:104A000000000000003C66606060663C0000000042
:104A100000000006063E66666666663E0000000010
:104A200000000000003C66667E60603C0000000004
:104A30000000001E3030307E30303030000000008A
:104A400000000000003E66666666663E06067C0064
:104A500000000060607C66666666666600000000B6
:104A600000001818007818181818187E00000000A8
:104A700000000C0C003C0C0C0C0C0C0C0C0C78000A
:104A8000000000606066666C786C6666000000007E
:104A900000000078181818181818187E0000000078
:104AA00000000000007E6B6B6B6B6B63000000000E
:104AB00000000000007C6666666666660000000016
:104AC00000000000003C66666666663C0000000070
:104AD00000000000007C66666666667C60606000C0
:104AE00000000000003E66666666663E060606003A
:104AF0000000000000666E706060606000000000F2
:104B000000000000003E60603C06067C00000000E3
:104B100000000030307E30303030301E00000000A9
:104B200000000000006666666666663E00000000E3
:104B3000000000000066666666663C180000000023
:104B40000000000000636B6B6B6B363600000000EA
:104B5000000000000066663C183C6666000000002D
:104B600000000000006666666666663C0C18F00091
:104B700000000000007E060C1830607E000000007F
:104B80000000000C1818183060301818180C0000BD
:104B900000000018181818181818181818181800F5
:104BA000000000301818180C060C181818300000F7
:104BB00000000071DB8E000000000000000000001B
:104BC00000000000FFFF0000FFFF0000FFFF0000EB
:104BD000FFFF0000FFFF0000FFFF0000FFFF0000DD
:104BE000FFFF0000FFFF0000FFFF0000FFFF0000CD
:104BF000FFFF0000FFFF0000FFFF0000FFFF0000BD
:104C0000FFFF0000FFFF00000000000000000000A8
:104C100000000000FFFF0000000000000000000096
:104C200000000000FFFF0000000000000000000086
:104C300000000000FFFF0000000000000000000076
:104C400000000000FFFF0000000000000000000066
:104C500000000000FFFF0000000000000000000056
:104C600000000000FFFF0000000000000000000046
:104C700000000000FFFF0000000000000000000036
:104C800000000000FFFF0000000000000000000026
:104C900000000000FFFF0000000000000000000016
:104CA00000000000FFFF0000FFFF00000000000008
:104CB00000000000FFFF00000000000000000000F6
:104CC00000000000FFFF00000000000000000000E6
:104CD00000000000FFFF00000000000000000000D6
:104CE00000000000FFFF00000000000000000000C6
:104CF00000000000FFFF0000FFFF000000000000B8
:104D000000000000FFFF00000000000000000000A5
:104D100000000000FFFF0000000000000000000095
:104D200000000000FFFF0000000000000000000085
:104D300000000000FFFF0000000000000000000075
:104D400000000000FFFF0000FFFF0000FFFF000069
:104D5000FFFF0000FFFF0000000000000000000057
:104D600000000000FFFF0000000000000000000045
:104D700000000000FFFF0000000000000000000035
:104D800000000000FFFF0000000000000000000025
:104D900000000000FFFF0000FFFF0000FFFF000019
:104DA000FFFF0000FFFF0000000000000000000007
:104DB00000000000FFFF00000000000000000000F5
:104DC00000000000FFFF00000000000000000000E5
:104DD00000000000FFFF00000000000000000000D5
:104DE00000000000FFFF0000FFFF000000000000C7
:104DF00000000000FFFF00000000000000000000B5
:104E000000000000FFFF00000000000000000000A4
:104E100000000000FFFF0000000000000000000094
:104E200000000000FFFF0000000000000000000084
:104E300000000000FFFF0000FFFF00000000000076
:104E400000000000FFFF0000000000000000000064
:104E500000000000FFFF0000000000000000000054
:104E600000000000FFFF0000000000000000000044
:104E700000000000FFFF0000000000000000000034
:104E800000000000FFFF0000000000000000000024
:104E900000000000FFFF0000FFFF0000FFFF000018
:104EA000FFFF0000FFFF0000FFFF0000FFFF00000A
:104EB000FFFF0000FFFF0000FFFF0000FFFF0000FA
:104EC000FFFF0000FFFF0000FFFF0000FFFF0000EA
:104ED000FFFF0000FFFF00000000000000000000D6
:104EE000000000001F0000001F0000001F00000065
:104EF0001F0000001F0000001F0000001F00000036
:104F00001F0000001F0000001F0000001F00000025
:104F10001F0000001F0000001F0000001F00000015
:104F20001F0000001F0000001F0000001F00000005
:104F30001F0000001F0000001F0000001F000000F5
:104F40001F0000001F0000001F0000001F000000E5
:104F50001F0000001F0000001F0000001F000000D5
:104F60001F0000001F0000001F0000001F000000C5
:104F70001F0000001F0000001F0000001F000000B5
:104F80001F0000001F0000001F0000001F000000A5
:104F90001F0000001F0000001F0000001F00000095
:104FA0001F000000E0FF0000E0FF0000E0FF000045
:104FB000E0FF00001F0000001F0000001F000000B5
:104FC0001F0000001F0000001F0000001F00000065
:104FD0001F0000001F0000001F0000001F00000055
:104FE0001F0000001F0000001F0000001F00000045
:104FF000E0FF0000E0FF0000E0FF0000E0FF000035
:10500000E0FF0000E0FF00001F0000001F000000A4
:105010001F0000001F0000001F0000001F00000014
:105020001F0000001F0000001F0000001F00000004
:105030001F0000001F0000001F000000E0FF000034
:10504000E0FF00001F0000001F0000001F00000024
:105050001F000000E0FF0000E0FF00001F00000054
:105060001F0000001F0000001F0000001F000000C4
:105070001F0000001F0000001F0000001F000000B4
:105080001F0000001F000000E0FF0000E0FF000024
:105090001F0000001F0000001F0000001F00000094
:1050A0001F0000001F000000E0FF0000E0FF000004
:1050B0001F0000001F0000001F0000001F00000074
:1050C0001F0000001F0000001F0000001F00000064
:1050D0001F000000E0FF0000E0FF00001F000000D4
:1050E0001F0000001F0000001F0000001F00000044
:1050F0001F0000001F0000001F000000E0FF000074
:10510000E0FF00001F0000001F0000001F00000063
:105110001F0000001F0000001F0000001F00000013
:10512000E0FF0000E0FF00001F0000001F00000083
:105130001F0000001F0000001F0000001F000000F3
:105140001F0000001F0000001F0000001F000000E3
:10515000E0FF0000E0FF00001F0000001F00000053
:105160001F0000001F0000001F000000E0FF000003
:10517000E0FF00001F0000001F0000001F000000F3
:105180001F0000001F0000001F0000001F000000A3
:105190001F0000001F0000001F0000001F00000093
:1051A0001F000000E0FF0000E0FF00001F00000003
:1051B0001F0000001F0000001F000000E0FF0000B3
:1051C000E0FF00001F0000001F0000001F000000A3
:1051D0001F0000001F0000001F0000001F00000053
:1051E0001F0000001F0000001F0000001F00000043
:1051F0001F000000E0FF0000E0FF00001F000000B3
:105200001F0000001F0000001F000000E0FF000062
:10521000E0FF00001F0000001F0000001F00000052
:105220001F0000001F0000001F0000001F00000002
:105230001F0000001F0000001F0000001F000000F2
:105240001F000000E0FF0000E0FF00001F00000062
:105250001F0000001F0000001F000000E0FF000012
:10526000E0FF0000E0FF0000E0FF0000E0FF0000C2
:10527000E0FF0000E0FF0000E0FF0000E0FF0000B2
:10528000E0FF0000E0FF0000E0FF0000E0FF0000A2
:10529000E0FF0000E0FF0000E0FF00001F00000052
:1052A0001F0000001F0000001F000000E0FF0000C2
:1052B000E0FF0000E0FF0000E0FF0000E0FF000072
:1052C000E0FF0000E0FF0000E0FF0000E0FF000062
:1052D000E0FF0000E0FF0000E0FF0000E0FF000052
:1052E000E0FF0000E0FF0000E0FF00001F00000002
:1052F0001F0000001F0000001F000000E0FF000072
:10530000E0FF00001F0000001F0000001F00000061
:105310001F0000001F0000001F0000001F00000011
:105320001F0000001F0000001F0000001F00000001
:105330001F000000E0FF0000E0FF00001F00000071
:105340001F0000001F0000001F000000E0FF000021
:10535000E0FF00001F0000001F0000001F00000011
:105360001F0000001F0000001F0000001F000000C1
:105370001F0000001F0000001F0000001F000000B1
:105380001F000000E0FF0000E0FF00001F00000021
:105390001F0000001F0000001F000000E0FF0000D1
:1053A000E0FF00001F0000001F0000001F000000C1
:1053B0001F0000001F0000001F0000001F00000071
:1053C0001F0000001F0000001F0000001F00000061
:1053D0001F000000E0FF0000E0FF00001F000000D1
:1053E0001F0000001F0000001F000000E0FF000081
:1053F000E0FF00001F0000001F0000001F00000071
:105400001F0000001F0000001F0000001F00000020
:105410001F0000001F0000001F0000001F00000010
:105420001F000000E0FF0000E0FF00001F00000080
:105430001F0000001F0000001F000000E0FF000030
:10544000E0FF00001F0000001F0000001F00000020
:105450001F0000001F0000001F0000001F000000D0
:105460001F0000001F0000001F0000001F000000C0
:105470001F000000E0FF0000E0FF00001F00000030
:105480001F0000001F0000001F0000001F000000A0
:105490001F0000001F0000001F0000001F00000090
:1054A0001F0000001F0000001F0000001F00000080
:1054B0001F0000001F0000001F0000001F00000070
:1054C0001F0000001F0000001F0000001F00000060
:1054D0001F0000001F0000001F0000001F00000050
:1054E0001F0000001F0000001F0000001F00000040
:1054F0001F0000001F0000001F0000001F00000030
:105500001F0000001F0000001F0000001F0000001F
:105510001F0000001F0000001F0000001F0000000F
:105520001F0000001F0000001F0000001F000000FF
:105530001F0000001F0000001F0000001F000000EF
:105540001F0000001F0000001F0000001F000000DF
:105550001F0000001F0000001F0000001F000000CF
:105560001F0000001F0000001F0000001F000000BF
:105570001F0000001F0000001F0000001F000000AF
:105580001F0000001F0000001F0000001F0000009F
:105590001F0000001F0000001F0000001F0000008F
:1055A0001F0000001F0000001F0000001F0000007F
:1055B0001F0000001F0000001F0000001F0000006F
:1055C0001F0000001F0000001F000000E0FF00009F
:1055D000E0FF0000E0FF0000E0FF0000E0FF00004F
:1055E000E0FF0000E0FF0000E0FF0000E0FF00003F
:1055F000E0FF0000E0FF0000E0FF00001F000000EF
:105600001F0000001F0000001F0000001F0000001E
:105610001F0000001F0000001F000000E0FF00004E
:10562000E0FF0000E0FF0000E0FF0000E0FF0000FE
:10563000E0FF0000E0FF0000E0FF0000E0FF0000EE
:10564000E0FF0000E0FF0000E0FF0000E0FF0000DE
:105650001F0000001F0000001F0000001F000000CE
:105660001F0000001F0000001F000000E0FF0000FE
:10567000E0FF00001F0000001F0000001F000000EE
:105680001F0000001F0000001F0000001F0000009E
:105690001F0000001F0000001F000000E0FF0000CE
:1056A000E0FF00001F0000001F0000001F000000BE
:1056B0001F0000001F0000001F000000E0FF0000AE
:1056C000E0FF00001F0000001F0000001F0000009E
:1056D0001F0000001F0000001F0000001F0000004E
:1056E0001F0000001F0000001F0000001F0000003E
:1056F000E0FF0000E0FF00001F0000001F000000AE
:105700001F0000001F0000001F000000E0FF00005D
:10571000E0FF00001F0000001F0000001F0000004D
:105720001F0000001F0000001F0000001F000000FD
:105730001F0000001F0000001F0000001F000000ED
:105740001F000000E0FF0000E0FF00001F0000005D
:105750001F0000001F0000001F000000E0FF00000D
:10576000E0FF00001F0000001F0000001F000000FD
:105770001F0000001F0000001F0000001F000000AD
:105780001F0000001F0000001F0000001F0000009D
:105790001F000000E0FF0000E0FF00001F0000000D
:1057A0001F0000001F0000001F000000E0FF0000BD
:1057B000E0FF00001F0000001F0000001F000000AD
:1057C0001F0000001F0000001F0000001F0000005D
:1057D0001F0000001F0000001F0000001F0000004D
:1057E000E0FF0000E0FF0000E0FF00001F000000FD
:1057F0001F0000001F0000001F000000E0FF00006D
:10580000E0FF0000E0FF0000E0FF0000E0FF00001C
:10581000E0FF0000E0FF0000E0FF0000E0FF00000C
:10582000E0FF0000E0FF0000E0FF0000E0FF0000FC
:10583000E0FF0000E0FF00001F0000001F0000006C
:105840001F0000001F0000001F000000E0FF00001C
:10585000E0FF0000E0FF0000E0FF0000E0FF0000CC
:10586000E0FF0000E0FF0000E0FF0000E0FF0000BC
:10587000E0FF0000E0FF0000E0FF0000E0FF0000AC
:10588000E0FF0000E0FF00001F0000001F0000001C
:105890001F0000001F0000001F000000E0FF0000CC
:1058A000E0FF00001F0000001F0000001F000000BC
:1058B0001F0000001F0000001F0000001F0000006C
:1058C0001F0000001F0000001F0000001F0000005C
:1058D0001F000000E0FF0000E0FF00001F000000CC
:1058E0001F0000001F0000001F000000E0FF00007C
:1058F000E0FF00001F0000001F0000001F0000006C
:105900001F0000001F0000001F0000001F0000001B
:105910001F0000001F0000001F0000001F0000000B
:105920001F000000E0FF0000E0FF00001F0000007B
:105930001F0000001F0000001F000000E0FF00002B
:10594000E0FF00001F0000001F0000001F0000001B
:105950001F0000001F0000001F0000001F000000CB
:105960001F0000001F0000001F0000001F000000BB
:105970001F000000E0FF0000E0FF00001F0000002B
:105980001F0000001F0000001F000000E0FF0000DB
:10599000E0FF00001F0000001F0000001F000000CB
:1059A0001F0000001F0000001F0000001F0000007B
:1059B0001F0000001F0000001F0000001F0000006B
:1059C000E0FF0000E0FF00001F0000001F000000DB
:1059D0001F0000001F0000001F000000E0FF00008B
:1059E000E0FF00001F0000001F0000001F0000007B
:1059F0001F0000001F0000001F0000001F0000002B
:105A00001F0000001F0000001F000000E0FF00005A
:105A1000E0FF00001F0000001F0000001F0000004A
:105A20001F0000001F0000001F000000E0FF00003A
:105A3000E0FF0000E0FF0000E0FF0000E0FF0000EA
:105A4000E0FF0000E0FF0000E0FF0000E0FF0000DA
:105A5000E0FF0000E0FF0000E0FF0000E0FF0000CA
:105A60001F0000001F0000001F0000001F000000BA
:105A70001F0000001F0000001F000000E0FF0000EA
:105A8000E0FF0000E0FF0000E0FF0000E0FF00009A
:105A9000E0FF0000E0FF0000E0FF0000E0FF00008A
:105AA000E0FF0000E0FF0000E0FF00001F0000003A
:105AB0001F0000001F0000001F0000001F0000006A
:105AC0001F0000001F0000001F0000001F0000005A
:105AD0001F0000001F0000001F0000001F0000004A
